:020000040C00EE
:100000000008001001020008B1020008F90300080E
:100010000F0B0008FB030008FD03000800000000B0
:10002000000000000000000000000000B102000815
:10003000B102000800000000B1020008B10200088F
:10004000B1020008B1020008B1020008B1020008C4
:10005000B1020008B1020008B1020008B1020008B4
:10006000B1020008000000000000000000000000D5
:10007000B102000800000000B1020008B10200084F
:10008000B1020008B1020008B1020008B102000884
:10009000B1020008B1020008B1020008B102000874
:1000A000B1020008B1020008B1020008B102000864
:1000B000B1020008B1020008B1020008B102000854
:1000C000B1020008B1020008B1020008B102000844
:1000D000B1020008B1020008B1020008B102000834
:1000E000B1020008B1020008B1020008B102000824
:1000F000B1020008B1020008B1020008B102000814
:10010000B1020008B1020008B1020008B102000803
:10011000B1020008B1020008B1020008B1020008F3
:10012000B1020008B1020008B1020008B1020008E3
:10013000B1020008B1020008B1020008B1020008D3
:10014000B1020008B1020008B1020008B1020008C3
:10015000B1020008B1020008B1020008B1020008B3
:10016000000000000000000000000000000000008F
:10017000B1020008B1020008B1020008B102000893
:10018000B1020008B1020008B1020008B102000883
:10019000B1020008B1020008B1020008B102000873
:1001A000B1020008B1020008B1020008B102000863
:1001B000B1020008B1020008B1020008B102000853
:1001C000B1020008B1020008B1020008B102000843
:1001D000B1020008B1020008B102000800000000EE
:1001E000B1020008B1020008B102000801040008D1
:1001F000B102000800000000B10200080000000089
:10020000DFF88CD023488047234C244DAC4209DAD8
:1002100021686268A368043BA2BFC858D050FAE7BF
:100220000C34F3E71E4B1F4CA34208DA19685A68D6
:100230000020043AA4BF8850FBE70833F4E71A48CB
:1002400080471A48804700000893000C00000020F7
:10025000E00500000499000C0000003000000000E0
:100260000893000C00080010000000000893000C28
:100270000008001000000000FC050020A00800009D
:1002800000000030000E0000000800100000000018
:10029000000800107D4400084802000878020008A9
:1002A0007802000890020008B56F0008B502000847
:1002B000FEE7000070B590B0284B1B680F934FF01D
:1002C000000304F083FB07AA0DF13B04002324483C
:1002D000C15C02F8011F0133102B08BF0023A242AA
:1002E000F6D100230493059306930293039300F041
:1002F0008FF81826002514E0304606F08FFD069092
:10030000002405F077FF069B18550134182CF8D10E
:100310000FE0049806F08AFD0495029806F086FD29
:10032000029504A800F0F4F90028FAD1069B002BEE
:10033000E2D007AB0193069B0093059A2B460499E4
:10034000029804F079F90028E3D1059800F04EFAFC
:10035000039002A800F0ECF9DBE700BFD49000089E
:10036000C4FF0020F0B589B0002504950595502301
:100370008DF80C3002278DF80D7004268DF80E6074
:1003800001248DF80F408DF812404FF4803306930E
:100390008DF81C408DF81D408DF81E408DF81F40D3
:1003A00003A803F013FA02F00DFF4021384602F0D3
:1003B0001DFF304602F0A0FE284602F01FFE204638
:1003C00002F0C4FE03F048FF094A6B4607CA83E8FF
:1003D000070000F050FB204600F029FB054AD2F848
:1003E000183243F44003C2F8183209B0F0BD00BF20
:1003F000AC8E000800800248FEE7FEE7FEE7000042
:1004000008B5024801F0EEFC08BD00BF0000002066
:1004100008B5164800F0EEFE154BDB68C3F3022367
:10042000C3F10701062928BF06219A1D062A8CBFA1
:1004300003F1FF3200224FF0FF338B40DB43934048
:100440009B00DBB20B4A82F86B334FF40063C2F8B7
:100450008C31D360054B4FF416529A62082283F810
:100460002E20054B1B68DB68984708BD0000002064
:1004700000ED00E000E100E0BC060020704770479E
:1004800008B5084B93F83E3113F0010F00D108BDB9
:10049000FFF7BEFF034A92F83E3123F0010382F8D2
:1004A0003E31F4E7BC06002010B50E4C4022214638
:1004B000812000F0E3FE4022A118822000F0DEFE41
:1004C000402204F18001032000F0D8FE064801F02C
:1004D0001DFF064A92F83E3143F0010382F83E3197
:1004E00010BD00BFFC05002010000020BC0600204D
:1004F00008B5024802F0D0F808BD00BF1000002087
:100500007047704770470000030A022B0FD0032B7F
:1005100004D0012B0FD0002003460AE0C0B201280E
:100520000CD002280DD078B10020034601E03E2017
:10053000074B136070471220064BFAE75820064B12
:10054000F7E72020054BF4E70420054BF1E700BF57
:10055000CC8E0008B88E0008388F0008148F000871
:100560000C8F000810B5074C02E0204601F09EFFFA
:10057000204601F0C3FF0028F7D0024801F0F8FF41
:1005800010BD00BF100000202DE9F04192B00746D9
:10059000384B1B6811934FF000032422002108A858
:1005A00005F0BAFE0023019302930393049305938D
:1005B0000693CDF81B301B23009308AD11AEB54256
:1005C00011D0FFF7CFFF0446FF28F8DC022846D001
:1005D0005FFA80F8404600F09DF908B93D2C40D103
:1005E00005F8018BEBE7FFF7BDFF02280AD00220D8
:1005F000204B1A68119B5A404FF0000337D112B0BC
:10060000BDE8F0816B4601AA242108A800F08CF90E
:1006100048B3009B1B2B01D00220E9E79DF8062080
:100620009DF805301B0243EA02439DF80420134362
:100630007B60182006F0F2FB0446B860A8B1DDF834
:100640000700DDF80B10DDF80F20DDF813300FC4C4
:10065000DDF81700DDF81B1003C40020C8E70220F6
:10066000C6E70120C4E70320C2E70420C0E700F08A
:100670005BFA00BFD49000082DE9F04782B0054630
:10068000D0F80480002400940121404605F046FF84
:10069000019458B3074600F1FF3926466B68B34210
:1006A0002AD9FFF75FFF0446FF28F7DC03281FD095
:1006B0005FFA80FA504600F02DF908B93D2C19D1A7
:1006C000013609F801AFE9E76B4601AA4146384611
:1006D00000F086F930B1009B6B60019B23B12B6069
:1006E00000240EE007240CE005240AE005240BE0BA
:1006F000062406E0012404E0FFF734FF0328E3D0DA
:100700000624384606F092FB204602B0BDE8F0878A
:1007100010B50446FFF726FF0128FBD12046FFF75E
:1007200033FF00B110BD2046FFF7A6FFFAE7000037
:1007300030B583B004460023019301AA41680068E4
:1007400000F0C4F80546019B83B10D4C0221204600
:1007500001F046FEAAB20199204601F01DFE0321D8
:10076000204601F03DFE002003B030BD636823B198
:1007700000280CBF09200820F6E70820F4E700BF96
:1007800010000020F0B5A3B0054614461E46289F71
:10079000154B1B6821934FF0000301A806F04EFB98
:1007A000337803F0070317F803E00DF103030DF1AD
:1007B000830C13F8011F8EEA010119706345F8D10B
:1007C000204606F02BFB2860224601A906F036FBE6
:1007D000054B1A68219B5A404FF0000302D10020BC
:1007E00023B0F0BD00F0A0F9D490000870470000DD
:1007F000F0B51646002964D08E4603B301788A0806
:10080000314CA25C3270012B19D006F1040C1C1F74
:100810002D4D36E001F03F012B4A525C0CF8032CC1
:10082000022B0CD03D220CF8022C032B07D066467D
:100830003D230CF8013C14B10CB100233370F0BD22
:10084000664602F03F02AA5C0CF8022C032BF6D09D
:100850000029ECD0BA7802F03F02AA5C06F8012C1D
:10086000002CECD0BEF1030EE6D010F8031F8A086E
:10087000AA5C32700CF1040C221F043B012CDED068
:1008800014460901BEF1010FC4D0427801EB1211E8
:1008900001F03F016A5C0CF8032C022BCFD0074615
:1008A00042789200BEF10201CAD06646817802EB1E
:1008B000911202F03F016A5C0CF8022C032BC9D1A3
:1008C000BDE71C46B8E700BF948F00082DE9F04152
:1008D00016468C1C0E4BA3FB04346408A40004F1E0
:1008E0000108414504D9002414602046BDE8F08188
:1008F00007460D46404606F091FA0246306028B1A0
:10090000434629463846FFF773FFEEE74446ECE7D7
:10091000ABAAAAAA034B034493F84000C043C0F318
:10092000C0107047948F0008F0B51E68012953D994
:1009300034462A4D12E0042903D1C2783D2A00D161
:100940000021341B1C60B1FA81F04009F0BD04297C
:10095000F6D0F6E7043004390129F2D990F800C046
:10096000AC449CF94070002FEBDB90F801C0AC4424
:100970009CF940E0BEF1000FE3DB34B14FEA2E1CDE
:100980004CEA870702F8017B013C0229D9D090F894
:1009900002C0BCF13D0FCED0AC449CF940C0BCF1CC
:1009A000000FCEDB34B14FEAAC0747EA0E1702F86E
:1009B000017B013C0329C4D0C7783D2FC7D02F4409
:1009C00097F94070002FBCDB002CC3D047EA8C178E
:1009D00002F8017B013CBDE73446B2E7948F000882
:1009E000F0B583B007460C4615461E464FEA910CFB
:1009F0000CEB4C0C0CF10200019006F00FFA286091
:100A000098B1024601AB21463846FFF78DFF0446F8
:100A100028B10EB1019B3360204603B0F0BD2868B9
:100A200006F004FA00232B60F6E70124F4E7BFF395
:100A30004F8FBFF36F8F4FF0E023D3F8943D002822
:100A40000CBF0122052213434FF0E022C2F8943D6F
:100A5000BFF34F8FBFF36F8F7047BFF34F8FBFF35D
:100A60006F8F4FF0E0230022C3F8942DBFF34F8F18
:100A7000BFF36F8F704710B584B004AB03E9070074
:100A800002460B469DF80C108E46092938BF4FF0E0
:100A9000090EB0F1805F0AD3B0F1804F32D3B0F1CC
:100AA000C04F2CBF4FF0070C4FF0050C01E04FF08A
:100AB000020C9DF80D4004F007044FF0E020C0F850
:100AC000984DD0F8A04D24F00104C0F8A04D22FAB2
:100AD0000EF202FA0EF2C0F89C2D180600F0B85083
:100AE0004FEA0C4289B10139490001F03E01C3F3DC
:100AF000C013034313430B434FF0E022C2F8A03D61
:100B000004B010BD4FF0060CD3E70021EFE74FF023
:100B1000E023D3F8283D13F0800F1CBF4FF0E023F3
:100B2000D3F8343DFEE70000BFF34F8F0549CA6894
:100B300002F4E062044B1343CB60BFF34F8F00BF5E
:100B4000FDE700BF00ED00E00400FA0510B5074C1A
:100B500023685B6A012180209847012384F83B3198
:100B600023689B6A18210020984710BDBC0600200E
:100B700030B583B00023ADF80230954B5C88FFF7A9
:100B8000B7FC944B93F83E3113F0020F58D0E4B207
:100B90008F4B5B780C2B00F27381DFE813F0890038
:100BA0000D0071011F017101DA00530000014200C4
:100BB000E900700003016E01854B1B7803F003030D
:100BC000022B08D053BB834A92F83E3123F0040332
:100BD00082F83E312DE07E4B98887F4B1B78DBB24C
:100BE000042B00D048B900F00F027A4B2C2101FBF6
:100BF00002331B7A13F0010F02D1FFF7A7FF18E0B1
:100C000074492C2303FB0212137A23F0040313729A
:100C10000B685B6A0021C0B298470AE0FFF796FFB5
:100C200007E06C490B681B6B012201F239110020AF
:100C30009847684A92F83E3123F0020382F83E3129
:100C400003B030BD624B998801AAC9B25888FFF73A
:100C50005BFC88B15E4AD488844228BF04465D4D5F
:100C60002B681B6B2246019900209847241AAC621E
:100C7000019B0344EB62DCE7FFF768FFD9E7564BC3
:100C80001B78DBB2042B07D0534B1B78DBB2032B52
:100C9000CFD1FFF75BFFCCE74E494D4B9B8803F567
:100CA0009C730A68146B012219440020A047C0E716
:100CB000474B1B7813F0030312D1464A92F83E319A
:100CC000C3F38001C3F3C00343EA4103ADF802302C
:100CD00013681B6B02220DEB020100209847A8E766
:100CE000012B23D0022B26D1394B9B883A4A12780C
:100CF000D2B2042A00D0F3B903F00F03354A2C21F5
:100D000001FB0322127A12F0010F14D0314A01FBC9
:100D100003231B7AC3F38003ADF8023013681B6B07
:100D200002220DEB02010020984782E72A4B1B7834
:100D3000DBB2042B02D0FFF709FF7AE70020ADF801
:100D40000200244B1B681B6B02220DEB020198472B
:100D50006FE74CB9204B02221A701E4B1B689B692F
:100D600000212046984764E71B4B03221A70F4E7E2
:100D7000184B83F83941FFF797FB1CB9164B032238
:100D80001A7056E7134B93F83E3113F0010F03D05E
:100D9000114B04221A704CE7FFF7D8FE49E7FFF722
:100DA000D5FE46E70C4B1B78DBB2042B08D00A4B70
:100DB0001B78DBB2032B7FF43CAFFFF7C7FE38E7AD
:100DC000034A9188034B0B44528883F8382130E75B
:100DD000440C0020BC060020400C0020022C13D044
:100DE000294B1B78DBB2042B11D0274B1B78DBB2CD
:100DF000032B06D12CB9254B1B7803F00303022BE0
:100E00002ED0FFF7A3FE14E7FFF7A0FE11E754B1C1
:100E1000012C7FF40EAF1E4A92F83E3143F00403DA
:100E200082F83E3105E7194B988800F00F03184A05
:100E30002C2101FB0322127A12F0010F0DD014496C
:100E40002C2202FB03131A7A42F004021A720B6876
:100E50005B6A0121C0B29847EBE6FFF777FEE8E650
:100E60000A4B9B88DBB2002BCBD1094A137A43F0A3
:100E700004031372FFF76AFEDBE6FFF767FED8E6AE
:100E8000FFF764FED5E600BF400C0020440C0020B4
:100E9000BC06002010B50D4B93F83B31022B0BD054
:100EA000032B12D1094C23689B6A1821207998479B
:100EB000012384F83B3108E0044C23689B6A00213D
:100EC00008469847052384F83B3110BDBC06002036
:100ED00010B50F4B93F83B31042B02D0052B0DD0EE
:100EE00010BDFFF745FE0A4C23681B6B002211461C
:100EF00010469847032384F83B31F1E7044C2368FC
:100F00009B6A182120799847012384F83B31E7E751
:100F1000BC06002010B5194C2368DB6A082218496A
:100F20000020984794F83E3143F0020384F83E31A4
:100F300008280FD1124BD98869B1114B93F90030B1
:100F4000002B14DB0D4B042283F83B211B689B6AAA
:100F50000020984710BD032384F83B31FFF708FEBB
:100F600023681B6B0022114610469847F2E7034B9B
:100F7000022283F83B21FFF7FBFDEBE7BC060020D4
:100F8000440C0020F8B5092846D8DFE800F05A5292
:100F9000494C0545867E4546464B02221A70464B13
:100FA000012283F83B2193F83E2122F0040283F8CA
:100FB0003E2100241E462C2505FB04631A8922F0DD
:100FC00010021A811A8922F008021A811A7A22F074
:100FD00004021A72002C6AD0D3B213F0010F0DD0A4
:100FE000354B2C2707FB04371B681B6A3879984759
:100FF0003B7A03F0FE0323F002033B720134072C1B
:10100000DAD12D4B002283F8392183F838211A6870
:10101000926A182118799047F8BDFFF771FAFBE73B
:10102000FFF72CFAF8E7234B01221A70FFF727FA93
:10103000F2E700201F4B18701F4B1B681B6A984774
:10104000EAE701251B4B1D701B4C4FF4A0720021D9
:10105000204605F061F9194B236084F83B5104F5F3
:10106000A07222624FF48072626204F510716161B5
:10107000A261032222722189402262F38C11218114
:10108000DB69002108469847C6E70B4B93F83A21E5
:10109000084B1A70FFF735FABEE7064B1978064A77
:1010A00082F83A1105221A70FFF72CFAB4E70134DE
:1010B00082E700BF400C0020BC060020D89000084A
:1010C000F8B500F00F04494B93F83C6193F83D519B
:1010D00083F83C4120F07F0083F83D01012913D0C3
:1010E000022937D039B92C2202FB04331A8922F0A5
:1010F00008021A812CB13D4B83F83C6183F83D51C5
:10110000F8BDFFF707FFF6E7384B2C2202FB04334C
:101110001A8942F020021A81DB6863B9334B2C270D
:1011200007FB043700223A611B68DB6ABA697969F8
:1011300038799847F8602D492C2303FB04131A894A
:1011400022F008021A8191F83C31002BD3D1FFF72D
:10115000BFFED0E7254B2C2202FB04339A6A002AFB
:1011600033D1224B2C2202FB0433187910F00F0FDD
:101170001AD11E4B02FB0433DB69ABB11C4AD28887
:10118000934211D0194A2C2101FB04221289C2F387
:101190008612B3FBF2F102FB11332BB9134B1B6820
:1011A0001B6B002211469847104B2C2202FB043483
:1011B0000021E161228961F30412228193F83C311C
:1011C000002B98D1FFF766FE95E7084B2C2101FB19
:1011D00004341B681B6BE16A20799847A36A1B1AC9
:1011E000A362E36A0344E3628AE700BFBC0600200F
:1011F000440C002038B50546174C4FF4A07200216E
:10120000204605F089F8154B00221A70144B236014
:10121000012284F83B2104F5A07222624FF480720F
:10122000626204F510716161A26103222272228957
:10123000402161F38C1222815B682846984738B9B7
:101240002368DB694022002108469847002038BD0A
:101250004FF0FF30FBE700BFBC060020400C002031
:10126000D890000808B5044B1B68DB6B9847003822
:1012700018BF012008BD00BFBC06002000F00F0C05
:1012800010F0800F054B4FF02C0000FB0C3319BF02
:1012900019625A6259619A61704700BFBC0600200A
:1012A0002B4B03EB8003D3F8C4311B6813F4004FBE
:1012B00000D17047264B342202FB00335B6A002BBF
:1012C000F7D0F0B5224BD3F8E0518F0838D04FEA71
:1012D000870E00231E4A342404FB002C2C68DCF803
:1012E0002420D45004337345F8D111F0030F1CD0DF
:1012F00021F003032E68994217D94FEA870CC3EBFC
:1013000087050D440022124B342404FB003EFF27C6
:10131000DEF8244007FA02F33340D34004F80C30DF
:1013200008320CF1010CAC45F2D1094B342202FB1E
:101330000033DA6A0A44DA625A6A0A445A62F0BD31
:1013400011F0030FF1D021F003032E68D5E700BFA1
:10135000FC09002082B000230193019B43F020038D
:101360000193019B60F38A1301930C4BD3F8A031D6
:10137000019A1A614FF47A73013BFDD1074BD3F800
:10138000A02113690193019B13F0200FF9D140F2C2
:10139000E933013BFDD102B0704700BFFC090020DA
:1013A00082B000230193019B43F0100301930B4B88
:1013B000D3F8A02101991161D3F8A0214FF47A73D9
:1013C000013BFDD113690193019B13F0100FF5D17F
:1013D00040F2E933013BFDD102B07047FC09002027
:1013E00010B40021046B836A8268C2F31202A4EB7A
:1013F000030C94458CBF9B1823468362027812F03D
:101400000F0F2CD1012363F3D44141F0C04164F3A9
:1014100006011C4BD3F808325B7B4BB9027802F013
:101420000F02184B03EB8203D3F8C431426A5A61AE
:10143000144A037803F00F0302EB8303D3F8C4319B
:101440001961037803F00F0302EB8302D2F8C42181
:10145000136843F0044313605DF8044B70471BB9F5
:10146000012363F3DC41D4E7C26A9B1A4468C4F3E6
:10147000C624621E1A44B2FBF4F262F3DC4163F349
:101480001201C6E7FC09002070B40025027802F0C2
:101490000F0202F16A012E4B53F821301C68036BD6
:1014A000866A8168C1F31201A3EB060C8C4528BF44
:1014B00073188362ABB9012363F3DC45244A0378D4
:1014C00003F00F036A3352F823301D6144F00444E3
:1014D000037803F00F036A3352F823301C6070BCAA
:1014E0007047017811F00F0F20D1012161F3DC4525
:1014F000C16A591A61F31205154BD3F80832597BAA
:1015000029B96A32124951F82220416A51615B7B44
:10151000012BD3D10E4BD3F8A4114E6B027802F0FD
:101520000F020123934033434B63C7E7C66A991BFD
:1015300061F312054168C1F3C6219B1B4E1EB6B272
:1015400016FA83F393FBF1F363F3DC45D4E700BFB2
:10155000FC09002040F2DF1070470000044BD3F874
:10156000A421536823F0020353600020704700BF9A
:10157000FC090020044BD3F8A421536843F0020374
:1015800053600020704700BFFC09002000F00F03EB
:10159000144A342000FB0322526812F0100F1ED1AF
:1015A000104A00FB0322127912F0040F01D101202E
:1015B000704710B50B484FF0340C0CFB0302546914
:1015C000A14228BF214611630024D4629462D168ED
:1015D000516214611046FFF703FF204610BD012041
:1015E000704700BFFC090020044BD3F8A4311A68EF
:1015F00011B960F30A121A6000207047FC0900203C
:1016000000F00F028C4651B310F0800F18D1274B19
:10161000342102FB01F1595C01F00F0103EB81035E
:10162000D3F8C4110B6843F400130B601F4B342133
:1016300001FB02331A796CF345121A7100207047CE
:101640001A49342302FB03F3CB5C03F00F036A3324
:1016500051F823100B6843F400130B60E6E710F019
:10166000800F11D1114B342102FB01F1595C01F0C3
:101670000F0103EB8103D3F8C4110B6823F40013AB
:1016800043F080530B60D1E70849342302FB03F396
:10169000CB5C03F00F036A3351F823100B6823F47B
:1016A000001343F080530B60C0E700BFFC0900202B
:1016B00000F00F00342300FB03F3124AD356002B33
:1016C00016DB104B342202FB00335A6822F0100262
:1016D0005A600C4B342202FB00331A7922F02002AC
:1016E0001A710020186198619862D8621863704777
:1016F0001346342202FB00335A6822F008025A6073
:10170000E7E700BFFC09002000F00F00404BD3F8D2
:10171000A421D269342101FB00331B7913F0040F9B
:1017200074D0F0B514463A4E01FB00FC06EB0C03F6
:1017300016F80C1001F00F0101258D4093F804E01C
:101740000EF0FB0E2EF0200E83F804E05F6827F009
:1017500010075F605F6827F008075F6016F90C30BC
:10176000002B07DB3346342606FB00331B7913F0CE
:10177000030F17D1264E6A3156F821304FF09041B1
:10178000196022EA050363F30F04342300FB03F31B
:10179000F356002B06DA342101FB00631B7913F0AA
:1017A000030F18D11A49342300FB03F3CB5C03F079
:1017B0000F0301EB8303D3F8C4314FF090461E6052
:1017C000C2F30F4222EA050262F31F44D1F8083245
:1017D0005B7B012B13D00E4BD3F8A421D4613422B0
:1017E00002FB00308288C2F3831201219140B3F8DA
:1017F000FC2122EA0102A3F8FC210020F0BDD1F86F
:10180000A421536B23EA05035363E4E701207047E7
:10181000FC090020034BD3F8A4319868C0F30D20D5
:10182000704700BFFC090020044B93F8FE0100F054
:101830000500052814BF002001207047FC09002086
:1018400008B50748D0F8A421536843F00203536059
:101850004FF40272002104F05FFD002008BD00BFBC
:10186000FC0900202DE9F04F83B005460F461446D1
:10187000DFF86492D9F8A431DB6901939A4600F04D
:101880000F08342202FB08FB09EB0B06002130464F
:1018900004F042FD09F80B50337943F0040333712F
:1018A000736864F3D1237360002D00F0DE8030464E
:1018B000B6684FF6C07C6CF31206866019F80B30E0
:1018C00003F00F03834901EB0326C66101F5E061D4
:1018D00001EB0321C16009EB8302D2F80C12016213
:1018E000D2F82822426115F0800F00F0D8806A33C8
:1018F000794A52F82350296841F4004167F3934133
:10190000002F00F0A68064F30A0141F0805121F419
:101910000011714BB3F8FC0110F0010263D00023F9
:10192000520092B20133DBB2072B58D01042F7D1EC
:101930001043694AA2F8FC0103F00F036648342201
:1019400002FB08F28618B6F804C063F3891CA6F8F7
:1019500004C063F399512960815C01F00F010123F8
:101960008B40019D2B4363F30F0A8356002B3DDB15
:10197000594B03EB8103D3F8C421136843F40043AC
:1019800067F39343002F43D064F30A0343F080537B
:1019900023F400131360342303FB08F34E4AD25C94
:1019A00002F00F0201239340019A43EA124363F3CA
:1019B0001F4A494BD3F8A431C3F81CA0002003B040
:1019C000BDE8F08F402CA0D16FF30A019DE7012301
:1019D00063F30A0199E7032363F30A0195E71042D1
:1019E000A6D00023A8E700230122A1E7002FE0D121
:1019F000394B342202FB08F29A5C02F00F0203EB2F
:101A00008203D3F8C421136843F4004323F4402332
:101A1000202C0DD007D8082C0ED0102CB6D10221C6
:101A200061F30A03B2E7402CB0D16FF30A03ADE7CC
:101A3000012161F30A03A9E7032161F30A03A5E782
:101A40006A33254A52F82350296841F4004121F4B1
:101A50004021202CBBD0B5D8082CBCD0102C7FF452
:101A600054AF022363F30A014FE71B4A93684021F6
:101A700061F312039360137803F00F03154901EB30
:101A80000320D06101F5E06101EB0321D16002EB9D
:101A90008301D1F80C021062D1F828125161002F95
:101AA000CED0342303FB08F30B4AD356002B80DB44
:101AB000094B342202FB08F29A5C02F00F0203EB9E
:101AC0008203D3F8C421136843F4004367F39343BC
:101AD0005AE700BF00000030FC09002070B5064640
:101AE00008460D4C342303FB064423699A4228BF61
:101AF0001A461546E168A369194405F09FF9236960
:101B00005B1B23610BB1A3692B44034A342101FB06
:101B100006229361284670BDFC0900202DE9F041A2
:101B200000F00F04164B342000FB04331B7913F034
:101B3000040F22D0124B00FB04335B6813F0080F34
:101B400001D000201AE00E4F00FB04752B6A9A4268
:101B500028BF1A461646E86905F070F9EB696B6212
:101B60002E630023AB62EB626B6843F008036B608B
:101B70002846FFF789FC286B00E00120BDE8F081D2
:101B8000FC090020007BD8B110B484460020034635
:101B90000C4C342103E00120013363450DD001FBDF
:101BA0000342526812F0080FF5D101FB034252685C
:101BB00012F0100F18BF0120EEE75DF8044B7047DC
:101BC000704700BFFC09002070B500240A4E96F84B
:101BD000FE5105F00105FFF7D5FF96F8FE31C3F37E
:101BE000800363F3000465F3410460F3820401237E
:101BF00063F3C404204670BDFC09002008B5034807
:101C000001F0FEF801F03AFB08BD00BF80000020A3
:101C100038B50446FFF7F2FF4048C0F8084200F527
:101C2000097300F5027100F51070402243F8042F8B
:101C300041F8042F8342F9D1384D4FF4027200214C
:101C4000284604F069FB6368C5F80032A368C5F84C
:101C500004322068C5F8A00100F50063C5F8A4317E
:101C600000F5106205F5D27305F5E07143F8042F15
:101C700020328B42FAD100F53062294B05F5EE7126
:101C800043F8042F20328B42FAD100F58052254BC5
:101C900005F5FC7543F8042F02F58052AB42F9D1EB
:101CA000826842F08102637BB3FA83F35B0963F3DA
:101CB00045128260194DD5F8A021D36843F08043C6
:101CC00043F48073D360D5F8A421136843F0030371
:101CD00023F400031360D5F8A421536843F00203F2
:101CE00053601020FFF736FBFFF75AFBD5F8A03101
:101CF00000229A61D5F8A0314FF0FF325A610A4BA9
:101D0000627B012A0CBF0122002262F3041343F418
:101D10004023D5F8A0219361002038BDFC090020A4
:101D2000BC0B0020D80B00200E3C00C008B50348B7
:101D300001F05AF801F0AAFA08BD00BF80000020A7
:101D400000230D280AD8DFE800F0070909090E0969
:101D50001114171A1C1F09224FF080430D4AD2F8A4
:101D6000A021536170474FF48053F7E74FF40063AD
:101D7000F4E74FF00043F1E74FF00043EEE70823AC
:101D8000ECE74FF48063E9E74FF40053E6E74FF4E4
:101D90000023E3E7FC0900206A31024B53F82130AD
:101DA00098607047FC090020034B03EB8103D3F8D4
:101DB000C4319860704700BFFC090020034BD3F882
:101DC000A421536903435361704700BFFC090020FD
:101DD000034BD3F8A421136903431361704700BF79
:101DE000FC0900202DE9F04F85B08346944BD3F8D1
:101DF000A0319D695C692C405FFA84FA14F0080FE9
:101E000007D08F4BD3F80032092098470920FFF7FD
:101E100097FF9BF80D30012B3BD0C4F3072514F43A
:101E2000806F5CD115F0080F07D0854BD3F80032D6
:101E3000062098470620FFF783FF260E002C52DB72
:101E400016F0400F0DD07E4B93F8FE2142F00402B5
:101E500083F8FE21D3F80032002098470020FFF7D6
:101E60006FFF15F0100F47D115F0200F40F0B48030
:101E7000C4F3074514F4802F40F0CA8015F0080F12
:101E800040F08E811AF0040F40F0228205B0BDE8C8
:101E9000F08F1AF0100FC0D025F01005684BD3F862
:101EA000A0219561D3F8A031186AC0F34343022BF7
:101EB00008D0062B0CD1C0F30A1100F00F00FFF779
:101EC000EFF905E0C0F30A1100F00F00FFF7E8F9A1
:101ED00045F010055A4BD3F8A0319D619DE70A20CB
:101EE000FFF72EFF9EE7564BD3F8003208209847A5
:101EF0000820FFF725FFA3E75148D0F8A421536835
:101F000043F00103536000F5E07200F5EE7052F803
:101F1000041F0B6843F0006323F400130B6082423C
:101F2000F5D1474ED6F8A03140225A62D6F8A031FA
:101F300002F580129A62D6F8A0311032C3F804215B
:101F4000D6F8A0311032C3F80821D6F8A0311032EB
:101F5000C3F80C21D6F8A0311032C3F81021D6F8FE
:101F6000A0311032C3F81421D6F8A0311032C3F8D2
:101F700018211020FFF7EEF90020FFF7EBF9FFF72B
:101F80000FFAD6F8A4314FF00112DA610F20FFF7F3
:101F900015FF0F20FFF71CFFD6F8A421136823F4C8
:101FA000FE6313609BF80D30012B10D0244B5A6850
:101FB00022F010025A605A6822F008025A60D3F8E0
:101FC0000032042098470420FFF7BAFE4CE7D6F809
:101FD000A43100225A63E9E7194DD5F8A821136806
:101FE0006FF30A03136095F8FE3143F0050385F89B
:101FF000FE31D5F8003202209847D5F8A021D368E9
:10200000092161F38D23D3600B20FFF799FE2FE7A1
:102010000B4BD3F8A4319A6919691FFA82F8B8F109
:10202000000F00F0B9804346002201921446044F8D
:102030004FF03409CDF808A003950D4692462CE0E8
:10204000FC090020012940F05A8116F0800F52D17E
:1020500016F0010F16D009FB0A731A6B9B6A9A429D
:1020600040F0928009FB0A72536823F00803536022
:102070009BF80D30012B7CD0D7F80432022144F0BC
:10208000800098470AF16A0A57F82A309E600134A6
:10209000E4B2A24658FA04F37BD013F0010FF6D055
:1020A0000AF16A0357F823209168D7F8A4315E6BD0
:1020B00009FB0AF3FB5C03F00F03DE40F601F6B206
:1020C0002E430E409BF80D100029BBD113690193DC
:1020D00016F0010FD6D0019B33F06043BBD18A4B81
:1020E000342202FB0A33986ADA6A811AD8625A6A81
:1020F0000A445A62AFE7844A03F16A0152F8211098
:102100008969342000FB0A22906AD26AB0EB020E81
:102110001CD00EF10302900889B2B1EB920F3CBFC4
:102120004FEA810E084688B17833774A52F823C0C7
:102130000021342303FB0A22536A1B68CCF80030C9
:102140000131536A043353628142F5D16E4B34221C
:1021500002FB0A33DA6A7244DA625A6A72445A62D9
:1021600016F0010F8ED09BF80D30002B7FF473AF6B
:10217000B1E7654BD3F8A4114B6B012202FA0AF2C6
:1021800023EA02034B6377E709FB0A70FFF77CF948
:1021900078E7DDF808A0039D0E20FFF7D1FD6DE67E
:1021A000594BD3F8A4219169D36952690020019059
:1021B000C3F30F4818EA114800F0868043460446EE
:1021C0000546514F4FF03409CDF80CA0029226E09D
:1021D0004D4B342202FB05331A69D96A0A441A614D
:1021E00045E009FB05731A6B9B6A9A4265D109FBAE
:1021F0000573DA6A1A615A6822F010025A60D7F839
:10220000043201212046984707EB8505D5F8C431F3
:102210009E600134E4B2254658FA04F352D013F01C
:10222000010FF6D007EB8503D3F8C4319E68029AFC
:1022300016409BF80D200AB91B6901935FFA86FAD4
:1022400016F0080F24D009FB0572137923F0200340
:1022500013719BF80D3033B9019BC3F34173C3F184
:102260000303DB0013619BF80D30012BB0D009FB99
:102270000572536823F010035360D7F8043200212D
:102280000846984707EB8503D3F8C43108229A60C3
:102290001AF0010FB8D09BF80D30002BA1D109FB2B
:1022A0000573019AC2F312019A6A521AD96A511A35
:1022B000DA625A6A0A445A6293E709FB0570FFF72B
:1022C0008FF8A1E7DDF80CA00D20FFF739FDD9E567
:1022D0000D4BD3F8A0315C6814F0040F0AD00A4B00
:1022E00093F8FE2122F0040283F8FE21D3F8003295
:1022F00001209847044BD3F8A0315C60C6E516F086
:10230000010F7FF4A8AEBDE6FC09002010B504461D
:10231000002343618361C361022383710373032339
:1023200083740121023000F0CBFB034608B9184644
:1023300010BD012104F1080000F0C2FB0346002893
:10234000F5D0012104F10E0000F0BAFB0346EEE7E0
:102350000F4B1B78DBB2042B16D110B50C468369EA
:10236000A3B183780B4A03F00F0182F83C1123F0EC
:102370007F0382F83D31204603F062FF002281B2E4
:10238000204601F0B5FA10BD022070470220FAE79E
:10239000400C0020BC06002008B503460846114644
:1023A0000D4A92F800C05FFA8CFCBCF1040F0FD10B
:1023B0009A697AB19B78094A03F00F0C82F83CC104
:1023C00023F07F0382F83D31002201F091FA08BD2D
:1023D0000220FCE70220FAE7400C0020BC060020A7
:1023E000114B1B78DBB2042B1AD110B50C46836954
:1023F000C3B183780D4A03F00F0182F83C1123F03A
:102400007F0382F83D3100F0DDFA20B900F07EFA5A
:1024100000F0FEF918B9204600F0F4FA002010BDD3
:10242000022070470220FAE7400C0020BC06002082
:1024300010B51C4B1B78DBB2042B2ED183697BB308
:10244000827802F00F01184B83F83C1122F07F02D2
:1024500083F83D212C2202FB013393F90430002B39
:1024600007DB114B2C2202FB01339B8933B900247B
:1024700014E00D4B02FB01339B8BF7E700F0A2FA4F
:10248000044600F043FA0CB1002407E000F0C0F964
:10249000044618B900F03AFA00E00224204610BDC4
:1024A0000224FBE7400C0020BC06002008B5114BBD
:1024B0001B78DBB2042B1BD18369CBB1827802F08D
:1024C0000F010D4B83F83C1122F07F0283F83D2170
:1024D0002C2202FB01339B6813F0100F08D1064B2E
:1024E00002FB01331B7A13F0020F01D0FFF7A0FFAC
:1024F00008BD00BF400C0020BC06002010B51A4BE0
:102500001B78DBB2042B27D1836943B3027A02F034
:102510000F01164B83F83C1122F07F0283F83D2116
:102520002C2202FB01339B6813F0200F19D00F4BB4
:1025300002FB013393F90430002B08DB0B4B2C22F8
:1025400002FB01339C8944B900F0B2F905E0074B66
:1025500002FB01339C8BF6E70024204610BD0024CB
:10256000FBE70024F9E700BF400C0020BC06002078
:1025700010B52C4B1B78DBB2042B49D18369002B9F
:1025800049D0017A01F00F02274B83F83C2121F05A
:102590007F0183F83D1111462C2000FB02339B681C
:1025A00013F0200F3AD0204B00FB023393F9043094
:1025B000002B0FDB1C4B2C2000FB02339B89B3B993
:1025C0004FF0FF34184B2C2202FB01339B89E3B1FF
:1025D000204610BD144B00FB02339B8B3BB94FF0E0
:1025E000FF34114B2C2202FB01339B8BEFE700F0F1
:1025F0001FFA04B20C4B93F83C112C2202FB01335E
:1026000093F90430002BDDDAEBE700F051F9DFE756
:102610004FF0FF34DCE74FF0FF34D9E74FF0FF34E1
:10262000D6E700BF400C0020BC060020154B1B78ED
:10263000DBB2042B24D110B582B0044683690BB9F8
:1026400002B010BD837B104A03F00F0182F83C11E9
:1026500023F07F0382F83D310C4A6B4692E8030079
:1026600083E8030000220821184601F041F9002206
:10267000022104F1160001F03BF900F047F9DFE711
:10268000704700BF400C0020BC06002018910008D5
:102690007047704770470000474B93F83E3113F086
:1026A000020F00F0888010B50446444B9A880378E6
:1026B0009A425ED1414B5B78203B032B59D8DFE82F
:1026C00003F0290254693D4B1B78A12B51D13A4AA2
:1026D00092F83E3123F0020382F83E3192F83C3109
:1026E0002C2101FB0322936813F0100FFBD1137A06
:1026F00013F0020FF7D0A06900F0B2F9207F00F0CC
:1027000081F9607F00F07EF9A07F00F07BF900F096
:10271000FDF82EE0294B1B78212B2AD1264A92F86E
:102720003E3123F0020382F83E3192F83C312C21F5
:1027300001FB03222249936813F0200F03D10B7889
:10274000002BF8D115E000F0A3F9A06100F070F9BA
:10275000207700F06DF9607700F06AF9A07700F05B
:10276000A7F82046FFF794FF03E0144B1B78212BBA
:1027700000D010BD104A92F83E3123F0020382F8D7
:102780003E310E4A9378D27843EA02238382FFF7E0
:1027900080FFEEE7094B1B78212BEAD1064A92F81D
:1027A0003E3123F0020382F83E31044B5988C9B20E
:1027B000FFF770FFDDE77047BC060020440C0020E7
:1027C000400C0020104B1B78EBB110B50F4B93F869
:1027D0003D4193F83C211443002283F83C2183F8C7
:1027E0003D2193F83E3113F0020F09D1074B04F05D
:1027F0000F0283F83C2124F07F0483F83D4110BD93
:10280000FEF7B6F9F2E77047400C0020BC06002046
:102810002DE9F041244B1B689B6B984706466427C3
:10282000214C2C25DFF8848001E01F46064694F8F1
:102830003C3105FB034292F90420002A1DDB05FB15
:102840000342926812F0200F26D198F8002002F07F
:10285000FF011AB3052923D005FB03431B7A13F0AC
:10286000040F1FD123689B6B98478642DED07B1EE6
:10287000DBB2002FD9D104200CE005FB03429268A3
:1028800012F0100FE1D105FB0342127A12F0020F91
:10289000DBD00020BDE8F0810020FBE70220F9E753
:1028A0000320F7E70120F5E7BC060020400C0020DC
:1028B00038B5154B93F83C512C2202FB05331B7A9B
:1028C00013F0020F1ED0104B02FB05341B68DB6AAD
:1028D000A269616920799847E06000232361A368B9
:1028E00013F0080F0ED168B9074A238943F0080393
:1028F0002381238923F02003238113689B6AA16924
:102900002079984738BD00BFBC060020F8B52A4B97
:1029100093F83C512C2202FB05339B6813F0100FF7
:102920002FD1254B02FB05331B7A13F0020F28D061
:10293000214A2C2404FB0524238943F0100323811E
:10294000236AE362E369A3620023E3611B4E4FF451
:102950000067C6F88C70BFF34F8FBFF36F8F13689B
:102960001B6BA26AE16A20799847E36A0344E36239
:10297000A36A1B1AA362F760114B1B78DBB2012B11
:1029800000D0F8BD207910F00F0FFAD022469368DE
:1029900013F0100FFBD1084A2C2303FB05252B89CC
:1029A00043F010032B8113681B6B0022E96A9847E0
:1029B000034B00221A70E4E7BC06002000E100E0AF
:1029C000D00C00200E4B93F83C212C2101FB02334C
:1029D00093F90430002B08DB094B2C2101FB023357
:1029E000D868003818BF01207047054B01FB02333F
:1029F000D8695B6A98422CBF00200120704700BF55
:102A0000BC060020094B93F83CC12C2202FB0C337E
:102A1000DA695B6A9A42FDD2044B2C2101FB0C332C
:102A2000196A8854DA690132DA617047BC060020FD
:102A30000A4B93F83C012C2202FB0033DA68002A8F
:102A4000FDD0064B2C2101FB003319695869405C0D
:102A500001311961013ADA60704700BFBC060020FD
:102A60000A4B93F83CC12C2202FB0C33DA695B6AF7
:102A7000033B9A42FDD2054B2C2101FB0C33196A12
:102A80008850DA690432DA61704700BFBC06002062
:102A90000A4B93F83C012C2202FB0033DA68032A2C
:102AA000FDD9064B2C2101FB0033196958694058A8
:102AB00004311961043ADA60704700BFBC06002097
:102AC00069B32DE9F041044601EB410300EB4308F3
:102AD000154E2C2702E0063444451ED0207800F025
:102AE0000F053368DB69628821799847C8B9237874
:102AF00007FB056213711389618861F38C131381DD
:102B000043F003031372207894F90030002BE2DBCA
:102B100033689B6A91699847DDE7012002E0012054
:102B200070470020BDE8F081BC06002010B50446C7
:102B300001F092FB074B1A68074BA3FB0232920C81
:102B400004FB02F222B1002300BF01339A42FBD101
:102B500010BD00BFC0FF002083DE1B43024AD36FBD
:102B60000343D367704700BF00400050024AD36F51
:102B700023EA0003D367704700400050034AD2F8AD
:102B800084300343C2F88430704700BF00400050D7
:102B9000014B986F704700BF00400050014BC3F8D5
:102BA0008000704700400050024B186900F47060CC
:102BB000704700BF00400050014B1861704700BFD4
:102BC000004000508000014B185870472C400050C6
:102BD0008000014B195070472C400050800000F1DC
:102BE000A04000F58040D0F8A02001238B40134383
:102BF000C0F8A0307047800000F1A04000F5804090
:102C0000D0F8A03001228A4023EA0203C0F8A030A5
:102C100070470000C90241EA001141F40801024B6B
:102C2000C3F88C10704700BF00400050034AD2F830
:102C30008C3023F00103C2F88C3070470040005004
:102C4000034AD2F88C3043F00103C2F88C3070474D
:102C500000400050034BD3F88C0080F0010000F0DE
:102C60000100704700400050024BD3F89000C0F3C1
:102C7000803070470040005008B5FFF7EBFF28B1E7
:102C8000044BD3F89000C0F3090008BD6FF000407A
:102C9000FBE700BF00400050024BD3F89000C0F3A8
:102CA000C03070470040005010B5FFF7D3FF044616
:102CB000FFF7F2FF50B984F00100C0B2044AD2F825
:102CC0008C3043F00203C2F88C3010BD0220F5E7CF
:102CD00000400050000400F4702040F00100064B5A
:102CE000C3F8CC10C3F8C8001A46D2F8C43013F4A5
:102CF000005FFAD1704700BF00400050000400F4AC
:102D00007020064BC3F8C8001A46D2F8C43013F43A
:102D1000005FFAD1014BD3F8CC007047004000505F
:102D2000024A936E23EA0003936670470041005005
:102D3000024A936E03439366704700BF0041005000
:102D4000014B586E704700BF00410050014B18679F
:102D5000704700BF00410050014BD866704700BF6C
:102D600000410050024A136D03431365704700BFD2
:102D700000410050014B186D704700BF00410050EA
:102D8000024AD36B0343D363704700BF0041005036
:102D9000024AD36B23EA0003D3637047004100501B
:102DA000024A536C03435364704700BF0041005014
:102DB000024A536C23EA00035364704700410050F9
:102DC000034AD2F888300343C2F88830704700BF06
:102DD00000400050034AD2F8883023EA0003C2F8CA
:102DE0008830704700400050030F03EB430320F08E
:102DF0007040024A42F82300704700BF1044005060
:102E0000030F03EB430320F07040024A42F8230013
:102E1000704700BF14440050030F03EB4303054AFF
:102E200052F82330184030F0704314BF01200020C6
:102E3000704700BF0C44005008B5054BDB6913F028
:102E4000010F01D0034808BD01F002FAFBE700BF03
:102E50000047005000366E0108B5FFF7EDFF0F4B3D
:102E60001B6913F0010F07D00C4B9B6903F07F0324
:102E70000133B0FBF3F008BD084B9A6999699B696F
:102E8000C1F3062101FB0000C2F30362C3F3064352
:102E9000013302FB0333B0FBF3F0ECE700470050D3
:102EA00008B501F0D5F9094B1B6A13F0010F0CD1DD
:102EB000064B5A6A5B6AC2F3062202FB0000C3F3A8
:102EC000036301335B00B0FBF3F008BD0047005023
:102ED000054B1A691B6A02F0010204490868904018
:102EE00003F00103D840704700460050C0FF0020A7
:102EF00008B5094B9B6913F4803F09D0FFF7ACFF7D
:102F0000054B9B6903F007030133B0FBF3F008BDE9
:102F1000FFF7C6FFF4E700BF0046005008B5FFF713
:102F20009BFF044BDB6903F03F030133B0FBF3F07D
:102F300008BD00BF0046005008B50D4B586A00F4AC
:102F40004030B0F5003F07D048B1B0F5803F14BF26
:102F500000200120C00303E0FFF77EFF00E00548EA
:102F6000034B5B6ADBB20133B0FBF3F008BD00BF7B
:102F70000046005000366E0108B5134B9B6A03F003
:102F80000303032B08D08BB90F4B1B6903F001031C
:102F90000E4A1068984008BDFFF75EFF0A4B9B6A17
:102FA000C3F308430133B0FBF3F0F4E7022B01D085
:102FB0000020F0E7FFF774FF034B9B6AC3F308435D
:102FC0000133B0FBF3F0E6E700460050C0FF0020FD
:102FD000034B5B6903F00103024A1068D840704755
:102FE00000460050C0FF0020034AD36823F480331A
:102FF0000343D360704700BF00460050034A936903
:1030000023F4803303439361704700BF00460050B0
:10301000034A536A23F4403303435362704700BFAB
:1030200000460050034A936A23F00303034393626C
:10303000704700BF0046005038B9084AD36923F4EE
:10304000807323F00103D3617047044AD36943F4CA
:10305000807343F00103D361704700BF0047005005
:10306000064AD2F8C43013F0080FFAD1044AD368E4
:1030700023F040030343D360704700BF004000507B
:1030800000430050064AD2F8C43013F0080FFAD1BA
:10309000044AD36823F080030343D360704700BF22
:1030A0000040005000430050034AD36823F0FF0360
:1030B00001380343D360704700460050034A136A47
:1030C00023F00103013803431362704700460050A8
:1030D000034A136923F00103013803431361704766
:1030E00000460050034A536923F0010301380343AB
:1030F0005361704700460050034A936923F0070369
:10310000013803439361704700460050034AD36976
:1031100023F03F0301380343D3617047004600505A
:10312000034A536A23F0FF03013803435362704795
:1031300000460050044A936A01386FF3184343EA8B
:1031400000439362704700BF00460050014B586037
:10315000704700BF00460050014B9860704700BFA9
:1031600000460050034B1B68184214BF012000208A
:10317000704700BF00460050064B5B69DBB207EEAC
:10318000903AF8EE677A9FED047A67EE877A17EE49
:10319000900A704700420050ED0DBE3B074B5B6943
:1031A000C3F3072307EE903AF8EE677A9FED047AAF
:1031B00067EE877A17EE900A704700BF0042005012
:1031C000EC51B83C034A536A23F4803323F00203E2
:1031D0005362704700470050034A536A43F48033F8
:1031E00043F002035362704700470050104B5A6A85
:1031F00042F001025A625A6A42F010025A620139E0
:103200000138000640EA012058625A6A42F0400242
:103210005A625A6A22F010025A625A6A42F48022B2
:103220005A621A46136A13F0040FFBD0704700BFAE
:1032300000470050014B024A5A6270470047005055
:103240000300010010B50C4A536943F48013536125
:10325000012803D06420FFF769FC10BD14465369B0
:1032600023F4801353616420FFF760FC636943F427
:1032700000236361EEE700BF00470050024B4FF4AC
:1032800040325A60704700BF00420050024B4FF47A
:1032900040329A60704700BF00420050024B186AEB
:1032A000C0F38000704700BF004700500D4B1B6803
:1032B00013F0010F07D10B4B01225A601A46136815
:1032C00013F0010FFBD0084B1B6813F4007F08D0EC
:1032D000054B4FF400729A601A46136813F4007F8E
:1032E000FBD170470042005000440050044B0122C3
:1032F0009A6003F500734FF400725A60704700BF84
:1033000000420050064B1B6813F0010F06D0054B1E
:10331000186880F40070C0F34020704700207047A8
:103320000042005000440050054AD2F8C43013F067
:10333000200FFAD1034A536923F001035361704708
:103340000040005000430050054AD2F8C43013F04A
:10335000200FFAD1034A536943F0010353617047C8
:103360000040005000430050044AD2F8C43013F02B
:10337000020FFAD1024B5860704700BF0040005066
:1033800000430050044AD2F8C43013F0040FFAD1BD
:10339000024B9860704700BF00400050004300504F
:1033A000054AD2F8C43013F0080FFAD1034BDA689B
:1033B0001043D860704700BF0040005000430050E9
:1033C000054AD2F8C43013F0080FFAD1034AD36883
:1033D00023EA0003D36070470040005000430050D0
:1033E000054AD2F8C43013F0080FFAD1034AD36863
:1033F00043F01003D360704700400050004300507A
:1034000000B1704708B5FFF7EBFF08BD094AD2F8D5
:10341000C43013F0080FFAD128B9074AD36843F42F
:103420008073D3607047044AD36823F48073D360F9
:10343000704700BF004000500043005010B40A4ADB
:10344000D2F8C43013F0080FFAD1084CE3688000BA
:103450004FF47022824023EA020381400B43E36071
:103460005DF8044B704700BF00400050004300501F
:1034700010B4094AD2F8C43013F0080FFAD1074C3F
:10348000E3684FF48052824023EA020381400B43F9
:10349000E3605DF8044B704700400050004300506B
:1034A000094AD2F8C43013F0080FFAD128B9074AF4
:1034B000D36843F48063D3607047044AD36823F42D
:1034C0008063D360704700BF00400050004300504D
:1034D000064AD2F8C43013F0080FFAD1044AD36870
:1034E00023F480630343D360704700BF0040005063
:1034F00000430050034B186880F00800C0F3C00080
:10350000704700BF00430050134AD2F8C43013F094
:10351000800FFAD1114AD36923F03003D361A2F5A9
:103520004072D2F8C43013F0080FFAD10B4AD368B6
:1035300043F00803D360A2F54072D2F8C43013F010
:10354000040FFAD1054B08229A60034AD2F8C4301E
:10355000002BFBD1704700BF0040005000430050DB
:10356000054AD2F8C43013F0800FFAD1034AD36968
:1035700043F03003D36170470040005000430050D7
:10358000054AD2F8C43013F0800FFAD1034AD36948
:1035900043F03103D36170470040005000430050B6
:1035A000064AD2F8C43013F0800FFAD1044AD36926
:1035B00023F0310343F02003D361704700400050F3
:1035C00000430050024B986900F00100704700BFB3
:1035D0000043005038B50C4D6B6923F480336B61A8
:1035E0006C6800F035FE094BA3FB00231B0D013B6B
:1035F00024F4702222F0300242EA03426A606B69CE
:1036000023F400336B6138BD004700506BCA5F6B19
:10361000044B186900F46070B0F5607F14BF00209F
:103620000120704700470050024A536843F03003BE
:103630005360704700470050024A536843F001034B
:103640005360704700470050024A536823F001035B
:103650005360704700470050024B186800F00100AB
:10366000704700BF00470050034A536923F480337A
:1036700023F002035361704700470050034A536927
:1036800043F4803343F00203536170470047005016
:10369000024A536943F48033536170470047005036
:1036A00008B5064A9369013823F4FE0343EA004350
:1036B00093613220FFF73AFA08BD00BF004700507F
:1036C0002DE9F04180460C4616461D46069FFFF741
:1036D000B3FC012C10D0374A936923F07F03013FDC
:1036E0003B439361536943F001035361136913F042
:1036F000010FFBD0BDE8F081B8F1000F4CD04FF0C6
:10370000C06405FB04F4B4FBF6F42A494B6943F0AA
:1037100001034B614B6943F010034B618A69013E21
:10372000254B134043EA0663013D43EA0523234A40
:10373000A2FB0402920E013A43EA02438B614B69F9
:1037400043F040034B614B6923F010034B614B691D
:1037500043F480234B610A46136913F0040FFBD036
:10376000144A536923F001035361136913F0010FE5
:10377000FBD1134BA3FB0423D80EB7EBD36F13D3AA
:103780006408104BA3FB0434E00EB7EBD46F0ED3E8
:103790003846FFF785FFADE700F05AFD0A4BA3FB63
:1037A0000034A40CA405ACE7FFF77AFFE8E7FFF7C5
:1037B00077FFEDE700470050FF8080F0ABAAAAAA90
:1037C00089888888B7600BB683DE1B4310B582B04A
:1037D00004460020FFF708FCFFF768FDE37923BBF0
:1037E000607AFFF74FFC204AD2F8C430002BFBD19F
:1037F000207AFFF727FD207CFFF756FC607CFFF75F
:1038000067FCA07CFFF75AFCE07CFFF76BFCA37918
:1038100093B9E378BBB9FFF731FFE368B3F5803FB5
:103820001CD000F019FD02B010BDFFF76DFEFFF7D0
:1038300061FE0028FBD0D3E7FFF7CCFEFFF7E8FEE0
:103840000028FBD0E5E7FFF70FFFA378009323786C
:103850006278E178A088FFF733FFDEE74FF480302D
:10386000FFF7C2FBDDE700BF00400050024B1869C4
:10387000C0F38000704700BF0047005010F0010304
:1038800010D1013320FA03F212F0010F03D1202BE3
:10389000F7D101207047202B06D0044A42F82310AC
:1038A000002070470023F8E701207047500C0020EB
:1038B00010B50D4B9A6F12F0010412D10134202C77
:1038C0000ED022FA04F313F0010FF7D0074B53F890
:1038D000243003B198470123A340034AC2F8803043
:1038E00010BD0024F2E700BF00400050500C002043
:1038F0002DE9F84F80460D46284B93F83CA19146A0
:1039000042B11788CD1BADB20026244C2C2303FBFB
:103910000A440BE00027F7E7FEF7F8FFB9F1000FC4
:1039200027D1FEF775FF0346002833D12DB3A368D6
:1039300013F0100FFAD1FFF745F80028ECD0E36937
:10394000666AF61AAE4228BF2E461FFA86FB206A28
:10395000324608EB0701184400F0A4F9E369334448
:10396000E3615F44BFB2A5EB0B0B2E461FFA8BF54C
:10397000DCE7A9F8007005230CE0084B2C2202FBC1
:103980000A331B89C3F38613B34202BF044B0122DF
:103990001A7000231846BDE8F88F00BFBC0600204F
:1039A000D00C00204AB14B1E10441144013913F8C9
:1039B000012F00F8012D8B42F9D170472DE9F04716
:1039C00081460D46204B93F83C3192463AB1178818
:1039D000CD1BADB21C4C2C2202FB03440AE0002795
:1039E000F8E7FEF793FFBAF1000F25D1FEF710FFBD
:1039F000034630BB25B3A36813F0100FFAD1FEF7CE
:103A0000E1FF0028EDD0E369666AF61AAE4228BFEE
:103A10002E461FFA86F8206A324609EB0701184441
:103A2000FFF7C0FFE3693344E3614744BFB2A5EB4E
:103A300008081FFA88F5DDE7AAF80070052300E002
:103A400000231846BDE8F087BC0600202DE9F047AA
:103A500081460D46214B93F83C3192463AB1178886
:103A6000CD1BADB21D4C2C2202FB03440AE0002703
:103A7000F8E7FEF71DFFBAF1000F27D1FEF7C8FEE9
:103A8000034640BB35B3A36813F0080FFAD1FEF725
:103A900099FF0028EDD0E668AE4228BF2E461FFAF7
:103AA00086F8616923693246194409EB070000F082
:103AB000F9F8E3689B1BE3602369334423614744BF
:103AC000BFB2A5EB08081FFA88F5DBE7AAF800707B
:103AD000052300E000231846BDE8F087BC0600205F
:103AE0002DE9F04781460D46214B93F83C31924633
:103AF0003AB11788CD1BADB21D4C2C2202FB0344FA
:103B00000AE00027F8E7FEF7D3FEBAF1000F27D14D
:103B1000FEF77EFE034640BB35B3A36813F0100FDB
:103B2000FAD1FEF74FFF0028EDD0E668AE4228BF7D
:103B30002E461FFA86F8616923693246194409EB5B
:103B40000700FFF72FFFE3689B1BE3602369334403
:103B500023614744BFB2A5EB08081FFA88F5DBE7ED
:103B6000AAF80070052300E000231846BDE8F0879E
:103B7000BC0600202DE9F04107460C46104DDCB193
:103B8000AB6813F0100FFAD10D4B5E6AA64294BFDA
:103B9000B6B22646DFF8288032463946D8F82000EB
:103BA00000F080F8D8F81C303344C8F81C30A61B4D
:103BB000B4B2FEF7ABFEE2E70020BDE8F08100BF43
:103BC000BC06002008B5FFF7D5FF08BD2DE9F04180
:103BD00080460C460D4DACB1AB6813F0200FFAD007
:103BE0000A4FFE68A64228BF2646324679694046FB
:103BF00000F058F8FB689B1BFB60A61BB4B2FEF7F5
:103C000057FEE8E70020BDE8F08100BFBC060020B9
:103C100008B5FFF7DBFF08BD2DE9F8430546204B4B
:103C200093F83C31884639B10F88C51BADB21C4CA6
:103C30002C2202FB03440AE00027F8E7FEF766FEA9
:103C4000B8F1000F23D1FEF7E3FD034620BB15B307
:103C5000A36813F0100FFAD1FEF7B4FE0028EDD0E0
:103C6000E369666AF61AAE4228BF2E461FFA86F945
:103C7000206A32460021184402F04EFBE3693344C7
:103C8000E3614F44BFB2A5EB09039DB2DFE7A8F89B
:103C90000070052300E000231846BDE8F88300BF4C
:103CA000BC060020130911D051F804CB40F804CB16
:103CB00051F804CB40F804CB51F804CB40F804CBC6
:103CC00051F804CB40F804CB013BEDD112F00F03C7
:103CD00005D011F801CB00F801CB013BF9D17047B9
:103CE00001F0FC031844036901F00301C9004FF01F
:103CF000F80C0CFA01FC23EA0C03036103698A4007
:103D00001A4302617047436F49004FF0030C0CFAED
:103D100001FC23EA0C034367436F8A401A4342675E
:103D20007047000030B501F0FC0303441C6901F04A
:103D3000030C4FEACC0C4FF0F80E0EFA0CFE24EAFE
:103D40000E041C61446F4D004FF0030E0EFA05FE89
:103D500024EA0E044467164CA04219D004F580747E
:103D6000A04215D054688C404460CC0800EB84001D
:103D7000046C01F00701890007258D4024EA050441
:103D80000464056C147A04FA01F12943016407E024
:103D9000046E4FF0010E0EFA01F124EA01010166F2
:103DA0001969127802FA0CF20A431A6130BD00BF99
:103DB000008E0248CB0800EB8300036C01F0070182
:103DC00089004FF0070C0CFA01FC23EA0C03036492
:103DD000036C8A401A4302647047000010B5044621
:103DE0001020FFF7B3F90E4B9C4209D00D4B9C42BB
:103DF0000AD00D4B9C420BD00C4B9C420CD010BDFA
:103E00000420FEF7FDFFFAE70820FEF7F9FFF6E7CA
:103E10001020FEF7F5FFF2E70548FEF7F1FFEEE7A9
:103E200000C0004000000140004001400040004848
:103E30000100001008B50E4B984209D00D4B984276
:103E40000AD00D4B98420BD00C4B98420CD008BDB9
:103E50000420FEF7C9FFFAE70820FEF7C5FFF6E7E2
:103E60001020FEF7C1FFF2E70548FEF7BDFFEEE7C1
:103E700000C00040000001400040014000400048F8
:103E80000100001038B504460D46FFF7A7FFE368B0
:103E900043F48073E360236823F4404343EA8533AB
:103EA000236038BD036823F0300343EA0113036045
:103EB0007047036823EA114389B2194301607047D0
:103EC0000B6843614B79C3F340131B0543600B79C7
:103ED00003F00F0343624B7903F00F0303624B7946
:103EE000C3F3001383610B791B09C36270470B682E
:103EF00043614B7903F001031B0543600B7903F029
:103F00000F0343620B791B09C3627047436823F0B8
:103F10000303194341604369012A0CBF43F48063E2
:103F200023F4806343617047436823F00C0343EA42
:103F300081034360436923F4407343EA02234361EE
:103F40007047436823F4405343EA013343607047AA
:103F500030B44469456825F4402C4CEA8141416005
:103F6000012A0CBF44F0807424F0807423B144F41F
:103F70000004446130BC704724F40004F9E743684E
:103F800023F4404343EA813343607047436823F49A
:103F9000407343EA012343607047436823F03003D2
:103FA00043EA011343607047436823F0C00343EAC8
:103FB000811343607047436823F4406343EA8123DD
:103FC00043607047436843F48033436070474368FD
:103FD00043F40033436043694AB143F400130129B9
:103FE0000CBF43F4800323F480034361704723F440
:103FF0000013F4E7036823F4402391F801C043EA77
:104000008C4323F4401392F801C043EA0C5323F489
:10401000000391F802C043EACC5323F0807392F876
:1040200002C043EA0C6323F0C05391F803C043EA93
:10403000CC6323F0C04392F803C043EA4C7323F0EF
:10404000F003097843EA011323F47063127843EA1A
:1040500002230360704770B501F1FF3C5FFA8CFCEE
:1040600006684FEA4C0E5FFA8EFE0EF11005EDB2B7
:10407000032404FA05F326EA03065378AB403343DE
:104080001531CDB20121A94023EA01039178A9405D
:1040900019430EF1190E5FFA8EFE04FA0EF421EAAE
:1040A0000401D37803FA0EF30B434FEA8C01C9B233
:1040B0000F248C4023EA040312788A4013430360E0
:1040C00070BD036801398900C9B24FF00F0C0CFABA
:1040D00001FC23EA0C038A401A430260704721B9AD
:1040E000436923F0020343617047436943F00203CD
:1040F0004361704721B9436923F00103436170476D
:10410000436943F00103436170471C3100EB8100B8
:104110004068704710B4436913F0100F19D101299A
:1041200015BF4FF0020C4FF0040C0023022300EBEC
:1041300083014C6F14F4801F05D10133D9B261455E
:10414000F5D3012002E04B6F136000205DF8044BB3
:1041500070474FF0040C0023E9E7006DC0F30152F3
:10416000914218BF4FF0FF30704710B44469494284
:1041700001F4005124F4C0442143524202F480422D
:104180001143416103625DF8044B7047836A23F475
:10419000706343EA0123836241627047D0F8A8301C
:1041A000092912D8DFE801F00505151511111111C3
:1041B000090D4FF0030C00210EE04FF4407C082164
:1041C0000AE04FF4406C0A2106E04FF4405C0C21F9
:1041D00002E04FF00C0C022123EA0C038A401A4340
:1041E000C0F8A8207047836923F001031943816157
:1041F000704782B000230193019B984206D900BF0B
:10420000019B01330193019B8342F8D302B07047B5
:1042100072B60C4B0C4A9A60BFF34F8F62B6D3F85C
:10422000882042F47002C3F888205A6922F00802FC
:104230005A61064A536923F00F0343F003035361A5
:10424000704700BF00ED00E00000000800200058AB
:1042500000487047001BB70008B51E4BDB6813F41D
:10426000803F27D01C4BDB6913F0010F17D01B4890
:10427000194B1B6913F0040F14D0174B99699A69F5
:104280009B69C1F30361C3F30643013301FB0333AD
:10429000B0FBF3F0C2F3062303FB00000BE0FFF7D3
:1042A000D7FFE5E70C4B9B6903F07F030133B0FBBD
:1042B000F3F000E00948074AD368DBB20133B0FBF2
:1042C000F3F0136903F001030133B0FBF3F0044B87
:1042D000186008BD004600500047005000366E01CF
:1042E000C0FF002010B55B4B1B6813F0010F08D115
:1042F000584A536843F001035360136813F0010FE9
:10430000FBD0554B1B6813F4007F77D1534C636986
:1043100043F40023636140F6C410FFF76AFF63694A
:1043200023F4803323F002036361636813F0300FDA
:104330006ED14A4B5A6942F001025A615A6942F001
:1043400010025A61464A9A615A6942F040025A6123
:104350005A6922F010025A615A6942F480225A6165
:104360001A46136913F0040FFBD03C4A536923F03B
:1043700001035361136913F0010FFBD1394BDA6864
:1043800042F48032DA6000225A611A611A625A627B
:10439000DA6103229A6103F580735A6922F04002C0
:1043A0005A61314A9A6140F6B830FFF722FF2B4A32
:1043B000136913F0040FFBD0284B2C4A9A6141F289
:1043C0009410FFF716FF254A136913F0040FFBD072
:1043D000224B274A9A6141F27070FFF70AFF1F4A89
:1043E000136913F0040FFBD0224B0522DA6603F5A4
:1043F000A06300225A60FFF72FFF10BD164A936892
:1044000043F40073936041F64C50FFF7F2FE7DE7F2
:10441000636823F4702323F030036360FFF718FF11
:104420006268154BA3FB00131B0D013B42EA0343DB
:104430006360E36923F00103E361636923F40033FC
:1044400063612246136903F46073B3F5607FF9D1A9
:104450006FE700BF0042005000440050004700508A
:10446000004F130100460050004F0701004F0401A8
:10447000004F0301004100506BCA5F6B10B54FF055
:104480000053044C0FCB84E80F00FFF7C1FEFBF78D
:1044900069FF10BDC4FF002008B503460C4A12682E
:1044A0005AB10B4A1068033323F003030344094A4B
:1044B000934206D2064A136008BD054A06491160B8
:1044C000EFE702F037F80C2303604FF0FF30F3E71B
:1044D000D40C0020C0FF0020A00E002070472DE962
:1044E000F04FA3B006AF0446D7F8A0803960154658
:1044F000C4B00023D7F8A420414607F110000DF105
:10450000270600F0FBFDAC4226F00F0607D9D7E9DD
:1045100026010023621B8B4208BF824209D3AC42B2
:104520000ED2D7E9260100232A1B8B4208BF824204
:1045300006D22946D7F89820204601F06FFF25467D
:104540002022002107F1300001F0E6FED7E9262302
:10455000002B08BF212AC7E9022303D3202200230E
:10456000C7E90223D7F808B007F14F090BF1FF3371
:104570006A1E2B4449469A4254D108F1100307F1B0
:10458000100A7B608DE80804D7E9022307F13008A0
:10459000203243F100034146404600F035F94146E0
:1045A000304600F0F1FF0BF11F03621E43449945B2
:1045B0003DD14021404600F09CFAD7E90223D7E9DB
:1045C00026018B4208BF824214D201220023CDE98A
:1045D00002237B68009302460B46D7E90201121AB8
:1045E00063EB0103CDF810A005EB0B0104EB0B000E
:1045F00000F000F95046202100F07BFAD7E926238D
:104600002146304600F0C8FF3968304600F0D0FF40
:1046100030464FF4807100F06CFA00207437BD46CC
:10462000BDE8F08F12F8010F01F8010FA3E719F8A8
:10463000011F02F8011FBAE730B500256FF0100422
:104640009D4208BF944285B001D200F0E9F9099C6F
:104650000394089C0294CDE900230A4601461030D9
:10466000FFF73DFF05B030BD2DE9F04FA1B00DF1D2
:1046700020082C9F91460C46002339462D9A10AEF7
:1046800005461037404600F039FD202200238DE812
:104690008001304600F0A4F848460096DDE92A2360
:1046A000214600F065FF814648B12021404600F0D8
:1046B00020FA4FF0FF39484621B0BDE8F08F002DB9
:1046C000F9D0AC4209D3DDE92A010023621B8B42F9
:1046D00008BF824209D3AC420DD8DDE92A0100238C
:1046E0002A1B8B4208BF824205D221462A9A2846BD
:1046F00001F094FE2C46DDE92A23002B08BF212A75
:10470000CDE9062303D320220023CDE90623DDF8DB
:1047100018B00DF15F080BF1FF33621E23444146D0
:104720009A4234D1DDE9062310AE20320DF1200A81
:1047300043F10003314630468DE8800400F064F810
:104740000BF11F026B1E1644B04525D1DDE906238F
:10475000DDE92A018B4208BF824213D201220023E5
:10476000CDE9022302460B46DDE90601121A63EB8E
:104770000103CDF810A0009704EB0B0105EB0B0033
:1047800000F038F82021504600F0B3F993E712F812
:10479000010F01F8010FC3E718F8012F03F8012FEB
:1047A000D2E7002B08BF102A1FB50ED3103A079C82
:1047B000039443F1FF33069C0294CDE900230A469B
:1047C0001031FFF751FF04B010BD4FF0FF30FAE792
:1047D00020207047082070474FF0FF3070470000DE
:1047E00010B403495DF8044B794409680968084727
:1047F00098BDFF17F0B4034C7C4424686468A44659
:10480000F0BC604788BDFF17F0B5084C87B07C440A
:104810000026002724680D9D0495CDE902670C9DB4
:1048200000956468A04707B0F0BD00BF72BDFF17D8
:10483000202100F073B80000044B054A7B4400209F
:104840009A58044B7B441A60704700BFA0BDFF1705
:10485000000000003CBDFF17024B7B4418600020A5
:10486000704700BF7EC4FF1710B500F00BF8044B73
:104870007B441B689B6813B1BDE81040184710BD0E
:1048800068C4FF17054B064A7B447A44196821B96E
:10489000044952581A60FFF7E7BF704750C4FF172A
:1048A00052BDFF170800000010B5FFF7EBFF034BE8
:1048B0007B44BDE810401B681B68184728C4FF17DD
:1048C00010B5FFF7DFFF034B7B44BDE810401B68CA
:1048D0005B68184710C4FF1770B50446FFF7D2FF96
:1048E0000D4B7B441B68DB681BB12046BDE8704064
:1048F0001847012C0DD96342B3FBF4F504FB1535C1
:10490000FFF7DEFF8542FBD8B0FBF4F304FB130096
:1049100070BD184670BD00BFF6C3FF1770B50C46DA
:104920000546FFF7AFFF44B1044B7B4421461B68AB
:1049300028461B69BDE87040184770BDAEC3FF171D
:1049400007B5054B01927B4400930A46002301F012
:1049500013F903B05DF804FBD64700002020704730
:10496000044B7B441B6813B15B6903B118470020FB
:10497000704700BF76C3FF17012B08BF002A08B598
:1049800009D3074A074B08487A447B440C32CC21B0
:10499000784401F013FD1146BDE80840FFF7BEBFA3
:1049A00094470000AA470000B8470000064B0122C8
:1049B0007B4453E8000F43E800210029F9D1BFF3FD
:1049C0005B8F0028F5D170472CC3FF1770B5FFF738
:1049D000EDFF0446A8B90C4D7D4401266B682BB150
:1049E000BFF35B8F34462860204670BD00F03AF874
:1049F000FFF73AFF00F000F96E60BFF35B8F2C60A9
:104A0000F2E74FF0FF34EFE704C3FF17034BBFF3A8
:104A10005B8F7B4400201860704700BFCAC2FF173D
:104A200008B5FFF7C3FF38B9044A7A449368BFF367
:104A30005B8F106003B1984701F082FDB2C2FF178F
:104A400010B50446FFF7B2FF30B9054B7B449C60BC
:104A5000BFF35B8F186010BD4FF0FF3010BD00BF7B
:104A600090C2FF17034B7B440020012258601A605C
:104A7000704700BF82C2FF17014B7B4458687047E4
:104A80006EC2FF17014B7B449868704762C2FF17E4
:104A9000014B7B44D868704756C2FF17014B7B44DB
:104AA000186970474AC2FF17014B7B445869704729
:104AB0003EC2FF17014B7B449869704732C2FF1713
:104AC000014B7B44D869704726C2FF17014B7B44DA
:104AD000186A70471AC2FF17014B7B44586A704727
:104AE0000EC2FF17014B7B44986A704702C2FF1742
:104AF000704701F089BC7047F7B5002406460F46A1
:104B000015468DF80740FFF7F6FF2346AB4206D166
:104B10009DF807000138C00F013803B0F0BDF15C0B
:104B2000F85C9DF8072041400A438DF807200133C7
:104B3000ECE77047F7B5002316468DF806300546BA
:104B40000C4601238DF80730FFF7F3FFAA19A119CE
:104B5000AA420AD19DF806009DF806209DF807306C
:104B600010441844013803B0F0BD12F8013D11F8AB
:104B7000014D9DF807009DF80660E71A00EA27201E
:104B800030438DF806009DF807006340013B00EAC2
:104B9000E3738DF80730DBE782B000238DF8073030
:104BA0000144884205D19DF807000138C00F02B0CA
:104BB00070479DF8072010F8013B13438DF807302C
:104BC000EFE701440123884200D170470278134483
:104BD00000F8013B1B0AF6E730B501390244002317
:104BE000904200D130BD047811F8015F2C44234479
:104BF00000F8013B1B0AF3E708B50348102178448D
:104C0000FFF78CFE002008BD16C1FF1708B501F0A4
:104C100091FC582303604FF0FF3008BD08B501F048
:104C2000F3FB01F087FC582303604FF0FF3008BD11
:104C300038B50546002808BF012002F0EFF8044609
:104C400018B12A46DB2101F067FB204638BD08B5C4
:104C500028B14FF0FF33B3FBF0F38B4204D9484344
:104C6000BDE80840FFF7E4BF01F064FC0C230360DB
:104C7000002008BD02F0DAB808B501F05BFC58234B
:104C800003604FF0FF3008BD08B501F053FC582316
:104C900003604FF0FF3008BD08B501F04BFC58230E
:104CA00003604FF0FF3008BD73B593B35C1E234221
:104CB0006FEA02061BBFB2FBF3F503FB1525344078
:104CC000641BB44201D3FFF7ABFE069D2244AA4207
:104CD0001FD208B1551C056000258DF807500A4405
:104CE00084EA05009DF8071016780138C0F3072004
:104CF000314020F07F06314302F801199DF807107A
:104D000001350843AB428DF80700E9D1002002B01D
:104D100070BD4FF0FF30FAE7F7B59A424FF000054B
:104D2000019525D323B311442E46AE4611F801CD8B
:104D3000019F8CF08004013F013C3C400EF1FF37A5
:104D40003C40C4F300244CEA0E0E6742DDF804C078
:104D50002F40013547EA0C07AB42019746EA0406AB
:104D6000E4D1019BDB431A440260701E03B0F0BD26
:104D70004FF0FF30FAE7000001487844704700BF69
:104D8000E843000010B5084C7C442068431C02D165
:104D90004FF0FF3010BD01F039FB0028F8D14FF083
:104DA000FF332360606010BDA4B2FF17F0B5244B41
:104DB0007B4491B05B68002B40D101F0BBFB214DDF
:104DC00006687D4401AF0021286802F0D1F8431C39
:104DD00004461FD0394602F037FAB0B9029B03F4FB
:104DE0007043B3F5005F10D10121204602F00EF8A8
:104DF000022140F00102204602F008F8124D7D44E5
:104E00002C60013415D1FFF70BFE204601F0FEFAAD
:104E1000043504E001F08EFB0368042BF8D12B6805
:104E2000002BD0D101F086FB052303604FF0FF3447
:104E3000E4E701F07FFB012306606B6011B0F0BD79
:104E40007CB2FF17C2B7FF172EB2FF172DE9F84348
:104E5000224B7B4480465B680E460BB9FFF7A6FFEA
:104E60001F4B7B44D3F80090B9F1FF3F01D1FFF70E
:104E7000D7FD46B91B4B1C4A1C487B447A44702121
:104E8000784401F09BFA144B9E4216D845463746AB
:104E90003A462946484602F0B5F8041E15DA01F0F4
:104EA00049FB0368042BF3D001F044FB03680B2B90
:104EB000EED0A642DBD1BDE8F8830D4B0D4A0E487B
:104EC0007B447A4471217844DBE702D03F1B2544C0
:104ED000DED1A5EB0804ECE7FEFFFF7FDAB1FF1798
:104EE000CAB1FF17F24200005C430000FF4200001D
:104EF000ED42000016430000B942000007B504214E
:104F00000DEB0100FFF7A2FF019803B05DF804FB71
:104F10002DE9F04F1446A1B01D4654EA0503824620
:104F200089462C9A2A992D9F2E9843D000230DF163
:104F30002008C65C03F808600133202BF9D1002358
:104F400004AEC85C98550133082BFAD1F2540133F2
:104F5000120A102B42EA07624FEA1727F6D1CDE971
:104F6000004510AF009BE31A0AEB030B4B4403937D
:104F7000DDE90023002B08BF402A1FD2A20942EA24
:104F800085629301A90950429A4499446FF03F0306
:104F900003FB0101A2FB03230B44A4185D4154EA67
:104FA00005032DD140213846FFF7A3FD20214046BF
:104FB000FFF79FFD002021B0BDE8F08F002342469F
:104FC0003146384600F098FA0023039AF95CD25C27
:104FD0004A400BF803200133402BF6D1082301226D
:104FE000F15C0A44F2540133102B4FEA1222F7D13C
:104FF000DDE90023403A43F1FF33CDE90023B1E777
:10500000002342463146384600F076FA0023A34298
:10501000C8D219F80320F95C4A400AF8032001338A
:10502000F5E72DE9F04714469CB01D4654EA050308
:105030008246249925983AD0002304AFC25CDA5501
:105040000133202BFAD100236E46CA5C9A550133F6
:10505000082BFAD10022F2540133102BFBD1A046C9
:10506000A946B9F1000FA4EB080008BFB8F1400F42
:10507000504420D2A20942EA8562A9096FF03F0399
:10508000504203FB01010AEB821AA2FB03230B44EB
:10509000A4185D4154EA05030DF130081FD14021E9
:1050A0004046FFF726FD20213846FFF722FD00206D
:1050B0001CB0BDE8F08700233A46314600F01CFAE8
:1050C00008230122F15C0A44F2540133102B4FEA09
:1050D0001222F7D1B8F1400849F1FF39C1E70023A6
:1050E0003A463146404600F007FA0023A342D6D2A2
:1050F00018F803200AF803200133F7E72DE9F04FF1
:105100008BB000906BB3DC689D685E681F681369A4
:105110009068029305904B685068D2F81CA0D2F8B2
:105120001890D2F814C0D1F80C80D1F808E001939F
:1051300003900B68D16812680B200890089801381A
:10514000089013D1009A1361019B17605660956017
:10515000D4605361C2F818E0C2F81C800BB0BDE8FF
:10516000F08F4C4C4C4D4D4E4D4FD0E707EB0C0B98
:1051700081EA7B6B07EB0B018EEAF15106915944F2
:105180008CEAF141099109980699014487EAB137FF
:10519000911988EA71610491711889EAF1510791B6
:1051A00007980499014482EAF1420146114486EAD3
:1051B000B13659198AEA716A0399019805EB0A0E0A
:1051C00081EAFE5E0AEB0E0183EAF1430EEB030176
:1051D00085EAB135029901EB0408059981EA7868FE
:1051E00004EB080180EAF151029808EB010C80EA17
:1051F000FC4C01EB0C0984EAB93407EB080982EA9C
:10520000796207EB02098EEAF95002EB000E039077
:1052100088EAFE400590039886460598864487EA0A
:10522000BE370BEB060E83EA7E6306EB030E81EAC4
:10523000FE510191019859188BEAF14100EB010EE2
:10524000049886EABE3600EB050E8CEA7E6005EB1C
:10525000000E0290069880EAFE5E029800EB0E08AF
:10526000049880EAF8480EEB080C099885EABC35EA
:105270000AEB040C80EA7C6C079804EB0C0980EACA
:10528000F9590CEB090B8AEAFB4A09EB0A0B84EA91
:10529000BB3453E77465206B322D62796E64203322
:1052A000657870612DE9F04F9BB0002B7AD0DC68F7
:1052B0000A949C6809945C681B68089407931368B7
:1052C0000E9353680F9393681093D36811931369E7
:1052D00012935369139393691493D36915930B68CD
:1052E00016934B6817938B681893CB681993149B8C
:1052F0000393099B0A9DDDF85480DDF84CE0129C75
:10530000029317AB93E8080A0193109B04930F9B39
:105310000093DDF858A0089F119A0E9BDDF81CC081
:1053200000210B910B99249EB14248DB0799109EF6
:10533000614401600E990B4443600F99009B0B443C
:105340008360049B3344C360119B1A44089B026131
:105350003B444361169B179A9A44019BC0F818A0DE
:105360001344C361189B029A9944199BC0F820907A
:105370009B44099BC0F824B013448362129B039A98
:105380002344C362139B9E44149BC0F830E01A442C
:105390004263159B434483630A9B2B44C3631BB046
:1053A000BDE8F08F514B0A9303F1646303F5E333D7
:1053B00003F5DF7309934E4B08934E4B7EE70CEBDE
:1053C0000E0182EA71620CEB020189EAF1510C9143
:1053D00051188EEAF1410D910D9E0C9931448CEAE1
:1053E000B13CD919039E8BEA71610591791886EA5F
:1053F000F1510391039E059901EB060B83EAFB4BE8
:1054000033465B4487EAB337029B534488EA7363AD
:1054100006930699029B03EB0108009B83EAF85868
:105420000B4643448AEAF34A029B08EB0A0683EAE6
:10543000B636049B611983EA7161019B05EB010E8D
:1054400083EAFE5E01EB0E090CEB010384EAF949E5
:105450008BEA73630EEB09040CEB030B85EAB4359E
:1054600088EAFB5403EB040881EAF84104910094B4
:105470002146049C21448CEAB13CD1198AEA716A24
:1054800007EB0A018EEAF1510191514482EAF1429F
:105490000199114487EAB1370599314489EA716469
:1054A0000C9906EB040981EAF959059904EB090BFB
:1054B00081EAFB4B09EB0B0186EAB13102910699B7
:1054C00001EB050E0D9981EA7E6E039905EB0E0640
:1054D00081EAF651069E0391714486EAF1480399E8
:1054E000414485EAB1350B9902311AE77465206BA6
:1054F0006E6420336578706113B514240094FFF74F
:10550000D1FE002002B010BD40207047102070472F
:10551000202070471020704713B50C240094FFF72B
:10552000C1FE002002B010BD40207047102070471F
:10553000202070471020704713B508240094FFF70F
:10554000B1FE002002B010BD40207047102070470F
:10555000202070471020704710B4044C7C4424680D
:105560002468A4465DF8044B604700BF54B0FF17A1
:1055700010B4044C7C4424686468A4465DF8044B71
:10558000604700BF3CB0FF17024B7B441B689B6821
:10559000184700BF26B0FF1710B4044C7C442468A1
:1055A000E468A4465DF8044B604700BF14B0FF17E1
:1055B000024B7B441B681B69184700BFFEAFFF17F7
:1055C00010207047202070474FF4807070472021D2
:1055D000FFF7A4B9044B054A7B4400209A58044BBA
:1055E0007B441A60704700BF04B0FF17040000003E
:1055F000D0AFFF172DE9F04F93B090E80044089228
:1056000090F85020D0F808C01191002A14BF002251
:105610004FF080720992C2680492026906920EEB02
:105620008E0210920CEB8C020792049A089C45693A
:10563000D0F81880009402EB82020592069A01933A
:1056400000F11C0102EB820B46C9089B009C1F1B4A
:10565000119B1F44DDE90034002C08BF102B08D239
:105660004561C0F81880C1610262466213B0BDE8AE
:10567000F08FD7F806403B68C4F319140C44D7F8F0
:10568000091023F07C431D4402EB9112D7F803303C
:10569000F968099F47EA11213144079EC3F3990332
:1056A000A2FB06674344EAFB05670293EBFB036733
:1056B000059BE3FB0467109BE3FB0167059BB0467A
:1056C000B946A2FB0367029BEEFB0567E3FB0A6793
:1056D000079BE4FB0B67E1FB0367CDE90A67029BCD
:1056E000ABFB0267ECFB0567EEFB0367059BE4FB86
:1056F0000A67E1FB0367049BCDE90C67AAFB02671D
:10570000E3FB0567029BECFB0367EEFB0467E1FB31
:105710000B67069BCDE90E67A2FB0E67E3FB0567EF
:10572000029A049BE3FB0267ECFB0467E1FB0A6758
:10573000CDE90267DDE90A674FEA986343EA891316
:10574000F61847F10007B30E26F07C4443EA8713AE
:10575000DDE90C67F61847F10007B30E43EA87133B
:1057600026F07C41DDE90E6728F07C45F618DDE97E
:10577000028947F10007B30E43EA871318EB0308C9
:1057800049F100094FEA986343EA891303EB830365
:105790002B4426F07C4223F07C4528F07C4604EB29
:1057A0009368DDE90034103B44F1FF34CDE9003467
:1057B0004BE72DE9F047D0E90E891D4658EA090369
:1057C00007460E46144634D01020B0EB08004FF0C8
:1057D000000161EB0901A94208BF904238BF0246AF
:1057E0002B4602F1FF3038BF0B4608F13F0106F1AE
:1057F000FF3C394496463044844543D118EB0208B7
:1058000049EB0309B9F1000F08BFB8F1100FC7E960
:105810000E8935D3A41A65EB03051022002307F186
:10582000400138467644FFF7E5FE00220023C7E931
:105830000E23002D08BF102C0CD324F00F082B468C
:10584000314642463846FFF7D5FEB4EB08044644DD
:1058500065EB050554EA050312D0D7E90E0104F102
:10586000FF3E00F13F03721E3B44764412F801EF05
:1058700003F801EFB242F9D124184D41C7E90E45B2
:10588000BDE8F0871CF801AF01F801AFB4E708B537
:10589000FFF78FFF002008BD2DE9F04FD0E90E2360
:1058A0000D4652EA030185B0044619D08118012043
:1058B00081F8400002F1400121440020013243F10F
:1058C0000003002B08BF102AC0F09B80012384F83E
:1058D00050301022002304F140012046FFF78AFED9
:1058E00004F118000DC8616A666902EB906203EB6F
:1058F000926301EB936121F07C47890E01EB8101FA
:10590000314420F07C4821F07C4B23F07C4008EBB4
:1059100091610BF1050322F07C4923F07C4A01EBF5
:10592000936323F07C4809EB936307F17C4223F0F7
:105930007C4E00EB936323F07C4C02EB9363DE0F11
:10594000721E764206EA0B0B314030400AEA020A28
:1059500008EA02080CEA020C4AEA0B0A48EA0108C3
:1059600006EA09094CEA000C0EEA020EA06A06EAF1
:1059700007014EEA090E4AEA886610EB060A4FEA6A
:105980000E5646EA9818E66A03914FF0000141F17D
:10599000000B002716EB08064FF0000147F1000747
:1059A00016EB0B0847EB01091340039A266BCDE970
:1059B00000894FEA8C3040EA1E3EDDF80480606BBF
:1059C000C5F800A0134316EB0E064FEA03234FF071
:1059D000000747F1000743EA9C4C18EB060841EB2F
:1059E0000709009B6B6010EB0C0019EB00065821B7
:1059F0002046C5F80880EE6005B0BDE8F04FFFF71F
:105A000078B801F8010F59E708B5FFF745FF002006
:105A100008BD00002DE9F84300AF0646386AA6B07D
:105A20000568D0F803E00DF13F0424F03F0425F0B1
:105A30007C4525601D4D05EA9E056560D0F806E0B1
:105A40001B4D05EA1E15A560D0F809E0194D05EAC1
:105A50009E15E560D0F810E0C568C4F828E0D0F8DD
:105A600014E0C4F82CE0C5F31325D0F818E0C069A1
:105A700025616063002520464FF000084FF00009C3
:105A8000C4F830E06561A561E56125626562C4E93D
:105A90000E8984F85050FFF78CFE20463146FFF700
:105AA000FBFE2846BD46BDE8F88300BF03FFFF03A9
:105AB000FFC0FF03FF3FF00330B587B0054602ACDF
:105AC0000A9800902046FFF7A5FF2146284600F0DF
:105AD0007FFB07B030BD00000A6822F07C4230B581
