:020000040C00EE
:100000000008001001020008B1020008B102000857
:10001000B1020008B1020008B102000800000000AF
:10002000000000000000000000000000B102000815
:10003000B102000800000000B1020008B10200088F
:10004000B1020008B1020008B1020008B1020008C4
:10005000B1020008B1020008B1020008B1020008B4
:10006000B1020008000000000000000000000000D5
:10007000B102000800000000B1020008B10200084F
:10008000B1020008B1020008B1020008B102000884
:10009000B1020008B1020008B1020008B102000874
:1000A000B1020008B1020008B1020008B102000864
:1000B000B1020008B1020008B1020008B102000854
:1000C000B1020008B1020008B1020008B102000844
:1000D000B1020008B1020008B1020008B102000834
:1000E000B1020008B1020008B1020008B102000824
:1000F000B1020008B1020008B1020008B102000814
:10010000B1020008B1020008B1020008B102000803
:10011000B1020008B1020008B1020008B1020008F3
:10012000B1020008B1020008B1020008B1020008E3
:10013000B1020008B1020008B1020008B1020008D3
:10014000B1020008B1020008B1020008B1020008C3
:10015000B1020008B1020008B1020008B1020008B3
:10016000000000000000000000000000000000008F
:10017000B1020008B1020008B1020008B102000893
:10018000B1020008B1020008B1020008B102000883
:10019000B1020008B1020008B1020008B102000873
:1001A000B1020008B1020008B1020008B102000863
:1001B000B1020008B1020008B1020008B102000853
:1001C000B1020008B1020008B1020008B102000843
:1001D000B1020008B1020008B102000800000000EE
:1001E000B1020008B1020008B1020008B102000823
:1001F000B102000800000000B10200080000000089
:10020000DFF88CD023488047234C244DAC4209DAD8
:1002100021686268A368043BA2BFC858D050FAE7BF
:100220000C34F3E71E4B1F4CA34208DA19685A68D6
:100230000020043AA4BF8850FBE70833F4E71A48CB
:1002400080471A4880470000641B000C0000002013
:1002500068050000CC20000C000000300000000009
:10026000641B000C0008001000000000641B000C60
:100270000008001000000000680500209C0100003C
:100280000000003000000000000800100000000026
:1002900000080010DD050008480200087802000888
:1002A0007802000890020008E9090008D902000855
:1002B000FEE780B483B000AF78600B46FB70FB783C
:1002C0004FF001129A407B685A6000BF0C37BD4660
:1002D0005DF8047B7047000080B584B000AF0D4A24
:1002E0003B4607CA83E807003B461A4600210A48F6
:1002F00000F078F84FF48013FB6002E0FB68013BEC
:10030000FB60FB68002BF9DA00210348FFF7D1FFFF
:10031000F0E700BF581B00080081024880B483B09A
:1003200000AF78600B46FB701346BB70FB789B08F0
:10033000DBB21A467B68043253F82220FB7803F0C4
:100340000303DB00F82101FA03F3DB43F9788908A2
:10035000C9B2084602EA03017B68021D43F8221075
:10036000FB789B08DBB21A467B68043253F82220E4
:10037000B978FB7803F00303DB0001FA03F3F978A3
:100380008908C9B2084642EA03017B68021D43F8A6
:10039000221000BF0C37BD465DF8047B704780B467
:1003A00083B000AF78600B46FB701346BB707B6870
:1003B0005A6FFB785B00032101FA03F3DB431A4019
:1003C0007B685A677B685A6FB978FB785B0001FAE3
:1003D00003F31A437B685A6700BF0C37BD465DF8CC
:1003E000047B704780B485B000AFF8600B467A603C
:1003F000FB72FB7A9B08DBB21A46FB68043253F8A7
:100400002220FB7A03F00303DB00F82101FA03F357
:10041000DB43F97A8908C9B2084602EA0301FB689E
:10042000021D43F82210FB685A6FFB7A5B00032120
:1004300001FA03F3DB431A40FB685A67FB68384A4A
:10044000934203D0FB68374A93420AD1FB681A6E85
:10045000FB7A012101FA03F3DB431A40FB681A66B9
:100460003CE07B685A68FB7A9A40FB685A60FB7AEA
:10047000DB08DBB21A46FB68103253F82220FB7A05
:1004800003F007039B00072101FA03F3DB43F97A2A
:10049000C908C9B2084602EA0301FB6800F110026C
:1004A00043F82210FB7ADB08DBB21A46FB681032F5
:1004B00053F822207B681B7A1946FB7A03F0070366
:1004C0009B0001FA03F3F97AC908C9B2084642EA67
:1004D0000301FB6800F1100243F82210FB7A9B082D
:1004E000DBB21A46FB68043253F822207B681B7883
:1004F0001946FB7A03F00303DB0001FA03F3F97AF0
:100500008908C9B2084642EA0301FB68021D43F8A4
:10051000221000BF1437BD465DF8047B704700BF52
:10052000008E0248008F024880B483B000AF78602C
:100530000B46FB701346BB70FB78DB08DBB21A4638
:100540007B68103253F82220FB7803F007039B00EE
:10055000072101FA03F3DB43F978C908C9B2084659
:1005600002EA03017B6800F1100243F82210FB78D5
:10057000DB08DBB21A467B68103253F82220B978C8
:10058000FB7803F007039B0001FA03F3F978C9082D
:10059000C9B2084642EA03017B6800F1100243F841
:1005A000221000BF0C37BD465DF8047B704780B455
:1005B00085B000AF78600023FB6003E000BFFB68FC
:1005C0000133FB60FB687A689A42F7D800BF00BF2E
:1005D0001437BD465DF8047B7047000098B500AF46
:1005E000064A4FF0005314460FCB84E80F0000F08A
:1005F00007F800F03FF800BF98BD00BFC4FF00201F
:1006000080B483B000AF72B600BF174B174A9A6030
:10061000BFF34F8F00BF62B600BF134BD3F88830D3
:10062000114A43F47003C2F888300F4B5B690E4ADD
:1006300023F0080353610E4B03F580535B697B6025
:100640007B6823F00F037B607B6843F003037B60D0
:10065000074B03F580531A467B68536100BF0C3784
:10066000BD465DF8047B704700ED00E00000000827
:100670000010005880B500AF754B1B6803F00103F4
:10068000002B0CD1724B5B68714A43F0010353603D
:1006900000BF6F4B1B6803F00103002BF9D06D4BBB
:1006A0001B6803F40073002B09D06A4B9B68694AEE
:1006B00043F40073936041F64C50FFF778FF664BAC
:1006C0005B68654A43F40023536040F6C410FFF7AB
:1006D0006EFF614B5B68604A23F4803323F00203B2
:1006E00053605E4B5B6803F03003002B29D05B4BFB
:1006F0005B685A4A23F4702323F03003536000F000
:1007000027F90346564AA2FB03231B0D013B1A049B
:10071000524B5B68514913434B604F4BDB684E4A69
:1007200023F00103D3604C4B5B684B4A23F4003346
:10073000536000BF484B1B6803F46073B3F5607FE0
:10074000F8D1454B5B68444A43F001035360424B88
:100750005B68414A43F0100353603F4B414A9A6043
:100760003D4B5B683C4A43F0400353603A4B5B6847
:10077000394A23F010035360374B5B68364A43F421
:100780008023536000BF344B1B6803F00403002B2D
:10079000F9D0314B5B68304A23F00103536000BF4E
:1007A0002D4B1B6803F00103002BF9D12E4BDB68A6
:1007B0002D4A43F48033D3602B4B00225A612A4BDD
:1007C00000221A61284B00221A62274B00225A622B
:1007D000254B0022DA61244B03229A611E4B5B6891
:1007E0001D4A23F0400353601B4B204A9A6040F699
:1007F000B830FFF7DCFE00BF174B1B6803F00403A3
:10080000002BF9D0144B1A4A9A6041F29410FFF76A
:10081000CEFE00BF104B1B6803F00403002BF9D081
:100820000D4B144A9A6041F27070FFF7C0FE00BF92
:10083000094B1B6803F00403002BF9D00E4B052273
:10084000DA60094B00225A6000F018F800BF80BD42
:100850000042005000440050104700500047005034
:100860006BCA5F6B004F130100460050004F070139
:10087000004F0401004F03016041005080B584B077
:1008800000AF2F4BDB6803F48033002B3ED02D4BA1
:10089000DB6803F00103002B02D02B4BFB6002E06E
:1008A00000F056F8F860274B1B6803F00403002B98
:1008B00020D0244B9B681B0E03F00F0301337B6099
:1008C000204B9B681B0A03F07F0301333B601D4BE9
:1008D0009B681B0C03F07F030133BB607B68BA6825
:1008E00002FB03F3FA68B2FBF3F23B6802FB03F38B
:1008F000FB600DE0134B9B6803F07F030133BB608B
:10090000FA68BB68B2FBF3F3FB6001E00E4BFB60DF
:100910000B4BDB68DBB20133FA68B2FBF3F3FB602D
:10092000074B1B6903F001030133FA68B2FBF3F3D1
:10093000FB60064AFB68136000BF1037BD4680BDF0
:10094000004600501047005000366E01C0FF0020E6
:1009500080B400AF024B1846BD465DF8047B70477B
:10096000001BB70080B584B000AF7860144B1B68E3
:10097000002B02D1124B134A1A60114B1B68FB600B
:100980007B68033323F003037B600D4B1A687B689D
:1009900013440D4A934207D2094B1A687B681344EB
:1009A000074A1360FB6806E000F018F803460C22C3
:1009B0001A604FF0FF3318461037BD4680BD00BFA8
:1009C0006C05002008070020C0FF002080B400AFA5
:1009D00000BFBD465DF8047B70470000014B1868FE
:1009E000704700BF0000002070B50F4B0F4DAB42A9
:1009F000A3EB050607D0B610002455F8043B0134DC
:100A00009847A642F9D8FFF7E1FF094D094B5E1B55
:100A1000AB424FEAA60606D0002455F8043B013449
:100A20009847A642F9D870BD6805002068050020E7
:100A30006805002068050020024A0349034800F0C9
:100A4000A3BC00BF48010020CD130008080000200F
:100A50000C4B4168994210B5044601D000F0B6FC39
:100A6000A168094B994202D0204600F0AFFCE16832
:100A7000064B994204D02046BDE8104000F0A6BCC9
:100A800010BD00BF70050020D805002040060020E2
:100A900008B54B6EDA0702D48B899B0501D500207F
:100AA00008BD886D00F08EF9002008BD08B54B6EBA
:100AB000DA0702D48B899B0501D5002008BD886D1B
:100AC00000F088F9002008BD2DE9F843314A324C86
:100AD0003249DFF8CC90DFF8CC80334F116000252D
:100AE00004232946082204F15C00C4E903352F4E93
:100AF000A560C4E90055C4E90555656600F00AF92A
:100B000004F15800C4E90749C4E90987E66200F026
:100B100051F92946264B6367082204F1C400C4E951
:100B20001A55C4E91E552567C4F8CC50C4F8805046
:100B300000F0F0F804F1680304F1C000C4F8843058
:100B4000C4E92298C4E9247600F034F9194BC4F8BA
:100B5000DC30294604F596700822C4E93455C4E90E
:100B60003855C4F8D850C4F83451C4F8E85000F0EF
:100B7000D1F804F1D003C4E93D87C4F8F09004F53E
:100B80009470C4F8FC60C4F8EC30BDE8F84300F0A1
:100B900011B900BFA806002070050020390A00081E
:100BA00089160008B1160008F1160008151700088C
:100BB0000900010012000200F8B506462A4800F0BC
:100BC00001F92A4B1B68002B43D0294FD7E9013488
:100BD000013B04D524E05A1C04F1680420D0B4F988
:100BE0000C50013B002DF6D1224BE36004F158007C
:100BF000656600F0DFF81C4800F0ECF8C4E9015528
:100C0000C4E9045508222560A561294604F15C0069
:100C100000F080F8C4E90C55C4E911552046F8BD30
:100C20003D680DB12F46D1E74FF4D671304600F044
:100C3000D3F8044680B10423C0E900530C302946A0
:100C4000A0604FF4D072254600F064F83C602F4657
:100C5000BCE7FFF739FFB8E703483C6000F0BAF89B
:100C60000C233360DAE700BFC8060020A806002086
:100C7000480100200100FFFF10B504460A4800F0BB
:100C8000A1F8636B23B9094B094A1B68626323B15E
:100C9000BDE81040044800F09DB8FFF715FFBDE81F
:100CA0001040014800F096B8C8060020A8060020B1
:100CB000510A0008014800F085B800BFC8060020AE
:100CC000014800F087B800BFC806002008B50548F5
:100CD00000F078F8BDE80840034A0449002000F01D
:100CE00053BB00BFC806002048010020910A00083D
:100CF00008B5054A0549002000F046FBBDE808405C
:100D0000034800F067B800BF48010020AD0A0008A2
:100D1000C8060020830730B546D08418844604E016
:100D200003F8011B9D0704D09C46A4456346F7D1F8
:100D300030BD013A0244A2EB0C02032A29D9CCB2FD
:100D400004EB04240F2A04EB04442FD9A2F1100C65
:100D50002CF00F0C03F11005AC44C3E90044C3E9C7
:100D6000024410336345F8D112F00C0F02F00F0E5D
:100D700018D02EF0030C9C44AEF104051A4642F83C
:100D8000044B6245FBD125F0030404330EF003024B
:100D90002344002ACCD0C9B21A4403F8011B934261
:100DA000FBD130BD7246F4E70346C6E79646E0E75E
:100DB000704700BF704700BF704700BF704700BF5B
:100DC000704700BF704700BF012070470120704787
:100DD000704700BF704700BF2DE9F04F01F10B05D0
:100DE000162D83B0064623D8102900F2B48000F0F7
:100DF000BFFA102518230220B84F3B44A3F1080284
:100E00005C68944200F064816368E268A16823F042
:100E10000303CA602344304691605A6842F00102DD
:100E20005A6000F0ABFA0834204603B0BDE8F08FFA
:100E300035F0070500F18F80A94200F28C8000F0A8
:100E400097FAB5F5FC7FC0F0B8815FEA552E00F047
:100E50008980BEF1040F00F270814FEA951E0EF1F9
:100E6000390003B20EF1380EDB009C4F3B44A3F176
:100E7000080C5C68A44507D10DE0002AE16880F207
:100E800021818C4507D00C46636823F003035A1B6D
:100E90000F2AF2DD7046DFF848823C69444500F0D5
:100EA000FE80636823F0030CACEB05030F2B00F30B
:100EB0008981002BC7E9048880F27381BCF5007F2B
:100EC000D7F804E080F018814FEADC03013319B24F
:100ED0004FEA5C1C012303FA0CF357F83120A2609F
:100EE0004EEA030E07EBC103083BE360C7F804E0DA
:100EF00047F83140D46083104FF0010C0CFA03FC2A
:100F0000F44535D81CEA0E0F08D120F003004FEA53
:100F10004C0C1CEA0E0F00F10400F8D007EBC00ADD
:100F2000D6468146DEF80C300BE0596821F003010B
:100F30004A1B0F2A1C46DB6800F30F81002A80F24F
:100F400023819E45F1D109F1010919F0030F0EF13A
:100F5000080EE7D161E10C2333600024204603B082
:100F6000BDE8F08F4FF4007340204FF03F0E7CE758
:100F7000BC68636823F00309A94504D3A9EB050302
:100F80000F2B00F38F80574B1B68082003F11008CC
:100F900004EB0903009300F05DFC534A136801332E
:100FA000A844834605D008F1FF388044434203EA51
:100FB00008084146304600F025FCB0F1FF3F4A4AA0
:100FC000824600F01B8104EB0903834200F2148186
:100FD000464B186840440BF1FF3C186000F07281EA
:100FE0001168013100F07A8104EB0902AAEB0202D8
:100FF00002441A601AF00702CDE9002300F03281A2
:10100000C2F108029244D04408EA0C015A44521A30
:1010100002EA0C0B5946304600F0F4FB421C019BDF
:1010200000F07981A0EB0A0000EB0B081868C7F804
:1010300008A048F001025844BC42CAF804201860D5
:1010400016D0B9F10F0F40F24C816168A9F10C0282
:1010500022F0070201F00101114361604FF0050C1D
:10106000A1180F2AC1E901CC00F25D81DAF8042051
:101070001F4B1968814238BF18601E4B19688142A6
:1010800038BF1860544622F00308A845A8EB0503B2
:1010900001D30F2B06DC304600F070F95DE7D7F87E
:1010A00004E028E7621943F0010345F0010565609B
:1010B0003046BA60536000F061F90834204603B04E
:1010C000BDE8F08FA2682344D16030468A60A4E670
:1010D000DC68A3427FF498AE0230DCE660010020B9
:1010E00068010020FC06002054010020CC060020EE
:1010F000F8060020F4060020BCF5206F4FEA5C22C1
:1011000072D3142A00F2C18002F15C031BB25B327D
:10111000DB00F918FB580839994203D198E09B6825
:10112000994204D05A6822F003026245F7D8D96880
:10113000C4E902318C60DC60DDE6BEF1140F60D9D9
:10114000BEF1540F00F2AB804FEA153E0EF16F0076
:1011500003B20EF16E0EDB0087E6D4F808C030460D
:10116000661945F001056560CCF80C30C3F808C07D
:1011700042F00103C7E90466C6E902887360625061
:1011800000F0FCF80834E9E6214430464A6842F0B1
:1011900001024A6054F8082FD3609A6000F0EEF81C
:1011A000DCE6A4443046DCF8043043F00103CCF81C
:1011B000043000F0E3F80834D0E6E808431C1BB222
:1011C000DB0019E6621943F0010145F00105656095
:1011D0003046C7E90422C2E90288516044F80C3065
:1011E00000F0CCF80834B9E64FEA9C1202F139035A
:1011F0001BB23832DB008CE7BC425CD0BC68626852
:1012000041E70EF15C0003B20EF15B0EDB002CE651
:101210005AF80839534540F0A68010F0030F00F14A
:10122000FF30F5D17B6823EA0C037B604FEA4C0C5E
:101230009C453FF69DAEBCF1000F04D198E64FEA05
:101240004C0C09F104091CEA030FF8D0484665E686
:1012500092104FF0010C0CFA02F24EEA020EC7F89F
:1012600004E065E70AEB080202EA0C02ABEB0202BB
:1012700002EA0C0B5946304600F0C4FA431C019BAD
:101280007FF4D0AEDDF800B0D0E6542A2DD84FEA76
:101290001C3202F16F031BB26E32DB0039E7BEF580
:1012A000AA7F2DD84FEAD53E0EF1780003B20EF199
:1012B000770EDB00D9E52D4B186840440BF1FF3C5D
:1012C00018608DE61AEA0C0F7FF48AAED7F808A0F2
:1012D000C84448F00102CAF80420C9E6C2F800A0D8
:1012E00088E60123CAF80430D5E6B2F5AA7F25D8EE
:1012F0004FEADC3202F178031BB27732DB0008E7F9
:1013000040F254539E4524D8AB0C03F17D0003F109
:101310007C0EC300A9E5009A083A9044A8EB0A089D
:101320004FF0000B82E6304604F10801009300F014
:10133000FBFA009BD7F808A0186897E640F25453D0
:101340009A420CD84FEA9C4202F17D03DB007C32CA
:10135000DFE64FF47E737F204FF07E0E85E54FF47D
:101360007E737E22D5E67B6860E700BFCC06002056
:101370000148FFF727BD00BFBC0600200148FFF76A
:1013800029BD00BFBC0600202DE9F843074688466A
:1013900016464FF00009D6E90154013D10D4A38947
:1013A000012B08D9B4F90E3001332146384602D05A
:1013B000C04749EA0009013D6B1C04F16804EED105
:1013C0003668002EE7D14846BDE8F88370B500299D
:1013D0003FD006460C4610B1436B002B3CD0636EE9
:1013E000B4F90C20DD0732D4900538D521463046BB
:1013F00000F054F8E36A054633B1E1693046984796
:101400000028B8BF4FF0FF35A3891A0639D4216BE5
:1014100041B104F14003994202D0304600F084FA11
:1014200000232363616C21B1304600F07DFA002374
:101430006364FFF73FFC636E0022DB07A2811CD5CB
:10144000A06DFFF7BBFCFFF73BFC284670BD002AF0
:10145000CCD10025284670BDFFF70EFCBFE7A06D7C
:10146000FFF7B0FCB4F90C30002BBFD1636ED90785
:10147000EFD4A06DFFF7AEFCEBE7A06DFFF7AAFC81
:10148000DEE72169304600F04FFAC0E7024B014623
:101490001868FFF79BBF00BF00000020B1F90C20C7
:1014A000F8B513070C46074649D4496842F400636F
:1014B0000029A3815FDDA66A002E3ED0002112F430
:1014C00080523D68396062D1E16901233846B047F6
:1014D000461C024669D0B4F90C30A66A580705D5F7
:1014E0006368D21A236B0BB1E36BD21AE169002354
:1014F0003846B047411CB4F90C304AD139681D292F
:101500003FD82E4ACA40D2073BD52269226023F435
:101510000062A281DE044FF00002626001D5002962
:1015200041D0216B3D6041B104F14003994202D0AA
:10153000384600F0F9F9002323630020F8BD0E6956
:10154000002EFAD00D680E6092070CBF4B69002385
:10155000AD1B8B600CE0D4F824C0E1692B46324609
:101560003846E047B0F1000CA5EB0C05664406DDFB
:10157000002DF0DCE1E7E16B00299CDCDDE7B4F94C
:101580000C3043F04003A3814FF0FF30F8BD226DD3
:10159000A4E72269226023F40062A281DB044FF0F9
:1015A00000026260BDD52065BBE73B68002B92D08E
:1015B0001D2B01D0162BE2D13D60BEE7010040207B
:1015C00038B50C46054608B1436B03B3B4F90C00BB
:1015D00088B1636EDB0701D481050FD5284621460B
:1015E000FFF75CFF636EDA07054602D4A3899B050B
:1015F00008D5284638BD0546284638BDA06DFFF7FA
:10160000E1FBEBE7A06DFFF7E5FB284638BDFFF7F0
:1016100033FBDBE750B338B5174B1D6804460DB1FB
:101620006B6BBBB1B4F90C0088B1636EDB0701D4FE
:10163000810513D528462146FFF730FF636EDA0790
:10164000054602D4A3899B050CD5284638BD05461E
:10165000284638BD2846FFF70FFBE3E7A06DFFF7EC
:10166000B1FBE7E7A06DFFF7B5FBEEE7034A0449DE
:101670000448FFF789BE00BF000000204801002099
:10168000C11500080800002010B50C46B1F90E1075
:1016900000F0A2F8002803DB236D0344236510BD8E
:1016A000A38923F48053A38110BD00BF002070479D
:1016B0002DE9F0410C46B1F90C101F46CB0505464B
:1016C00016460BD421F48051A1813B46B4F90E108B
:1016D00032462846BDE8F04100F0A6B8B4F90E1035
:1016E0000223002200F062F8B4F90C10EAE700BF10
:1016F00010B50C46B1F90E1000F058F8B4F90C30E2
:10170000421C0EBF23F4805343F480532065A38111
:1017100010BD00BFB1F90E1000F000B838B5074D8C
:101720000022044608462A6000F0F6F9431C00D067
:1017300038BD2B68002BFBD0236038BD000700208C
:10174000194B1B6883422ED0416C70B5054681B1A0
:1017500000268C593CB121462468284600F0E4F864
:10176000002CF8D1696C0436802EF2D1284600F0A6
:10177000DBF8A96B11B1284600F0D6F82C6C34B117
:1017800021462468284600F0CFF8002CF8D1E96CF7
:1017900011B1284600F0C8F86B6B1BB12846BDE8B4
:1017A0007040184770BD70470000002038B50D46E6
:1017B000084C8446114628461A4600232360654695
:1017C00000F0B2F9431C00D038BD2368002BFBD0D9
:1017D0002B6038BD0007002038B50D46084C844604
:1017E000114628461A4600232360654600F0A4F9F6
:1017F000431C00D038BD2368002BFBD02B6038BDC4
:101800000007002038B5074D0022044608462A602C
:10181000FFF7A8F8431C00D038BD2B68002BFBD085
:10182000236038BD0007002038B50D46084C8446BB
:10183000114628461A4600232360654600F084F9C5
:10184000431C00D038BD2368002BFBD02B6038BD73
:1018500000070020082802D14FF48050704708B5D7
:10186000FFF7BCF8162303604FF0FF3008BD00BF40
:101870002DE9F843064608208946FFF7EBFFDFF81D
:101880009C8005463046FFF773FDD8F808305F6846
:1018900027F00307A7F11104A4EB09042C44B4FBBF
:1018A000F5F4013C05FB04F4A54208DC00213046B8
:1018B000FFF7A8FFD8F808303B44984205D03046DF
:1018C000FFF75CFD0020BDE8F88361423046FFF77A
:1018D00099FF01300FD0124AD8F808303F1B47F06B
:1018E00001075F60136830461B1B1360FFF746FD5E
:1018F0000120BDE8F88300213046FFF783FFD8F8C8
:101900000820831A0F2BDADD43F001035360054BE7
:1019100003491B68C01A0860D1E700BF60010020BE
:10192000CC0600205401002000295BD0F8B50C46FD
:101930000746FFF71DFD54F804CC744DA4F10802CE
:101940002CF00103D118A8684E68884226F00306DF
:101950000CF0010E7ED088194E60406800F0010046
:10196000BEF1000F2FD154F8084C121B2344946889
:1019700005F1080C644562D0D2F80CE0C4F80CE024
:10198000CEF8084000287FD043F0010050600B6083
:10199000B3F5007F2FD2D90868685C0901310123B3
:1019A00009B2A34003436B6055F83100906005EB2A
:1019B000C103083BD36045F83120C2603846BDE81A
:1019C000F840FFF7DBBC70B9334405F1080C8868B8
:1019D000604543F0010471D0C968C16088605460FB
:1019E000D350D5E770474CF00101B3F5007F44F8C0
:1019F000041CD350CFD3B3F5206F4FEA532045D208
:101A0000980900F1390109B200F13804C9006818D9
:101A100069580838884203D157E08968884204D061
:101A20004C6824F003049C42F7D8C868C2E902104D
:101A300082603846CA60BDE8F840FFF79FBC88BBAB
:101A40001E44D1E90213CB60996046F00103536054
:101A50009651B3E71E44BEF1000F07D154F8083C7D
:101A6000D21A1E44D2E90213CB60996046F00103FA
:101A70005360274BAA601B68B3429FD8254B38465A
:101A80001968FFF7F5FE99E73344A0E714280ED94B
:101A9000542821D8180B00F16F0109B200F16E042F
:101AA000C900B4E743F0010050600B6086E700F125
:101AB0005C0109B200F15B04C900A8E7C5E9042292
:101AC000C2E902CC5460D35078E76E68A4100123B9
:101AD000A34033436B60A9E7B0F5AA7F07D8D80BC2
:101AE00000F1780109B200F17704C9008FE740F2F4
:101AF0005451884206D8980C00F17D0100F17C0415
:101B0000C90084E74FF47E717E2480E760010020E5
:101B100058010020FC060020024B58221A604FF0AA
:101B2000FF30704700070020024B58221A604FF028
:101B3000FF30704700070020024B58221A604FF018
:101B4000FF30704700070020024B58221A604FF008
:101B5000FF307047000700208000000000000100F7
:041B60000000000081
:101B640008000020000000000000000070050020B4
:101B7400D8050020400600200000000000000000FE
:101B84000000000000000000000000000000000051
:101B94000000000000000000000000000000000041
:101BA4000000000000000000000000000000000031
:101BB4000000000000000000000000000000000021
:101BC4000000000000000000000000000000000011
:101BD4000000000000000000000000000000000001
:101BE40000000000000000000000000000000000F1
:101BF40000000000000000000000000000000000E1
:101C040001000000000000000E33CDAB34126DE67D
:101C1400ECDE05000B0000000000000000000000E6
:101C240000000000000000000000000000000000B0
:101C340000000000000000000000000000000000A0
:101C44000000000000000000000000000000000090
:101C54000000000000000000000000000000000080
:101C64000000000000000000000000000000000070
:101C74000000000000000000000000000000000060
:101C84000000000000000000000000000000000050
:101C94000000000000000000000000000000000040
:101CA400000000000000000000000000030000002D
:101CB40070050020FFFFFFFF00000200000000008D
:101CC400000000000000000060010020600100200E
:101CD40068010020680100207001002070010020CC
:101CE400780100207801002080010020800100207C
:101CF400880100208801002090010020900100202C
:101D04009801002098010020A0010020A0010020DB
:101D1400A8010020A8010020B0010020B00100208B
:101D2400B8010020B8010020C0010020C00100203B
:101D3400C8010020C8010020D0010020D0010020EB
:101D4400D8010020D8010020E0010020E00100209B
:101D5400E8010020E8010020F0010020F00100204B
:101D6400F8010020F80100200002002000020020F9
:101D740008020020080200201002002010020020A7
:101D84001802002018020020200200202002002057
:101D94002802002028020020300200203002002007
:101DA40038020020380200204002002040020020B7
:101DB4004802002048020020500200205002002067
:101DC4005802002058020020600200206002002017
:101DD40068020020680200207002002070020020C7
:101DE4007802002078020020800200208002002077
:101DF4008802002088020020900200209002002027
:101E04009802002098020020A0020020A0020020D6
:101E1400A8020020A8020020B0020020B002002086
:101E2400B8020020B8020020C0020020C002002036
:101E3400C8020020C8020020D0020020D0020020E6
:101E4400D8020020D8020020E0020020E002002096
:101E5400E8020020E8020020F0020020F002002046
:101E6400F8020020F80200200003002000030020F4
:101E740008030020080300201003002010030020A2
:101E84001803002018030020200300202003002052
:101E94002803002028030020300300203003002002
:101EA40038030020380300204003002040030020B2
:101EB4004803002048030020500300205003002062
:101EC4005803002058030020600300206003002012
:101ED40068030020680300207003002070030020C2
:101EE4007803002078030020800300208003002072
:101EF4008803002088030020900300209003002022
:101F04009803002098030020A0030020A0030020D1
:101F1400A8030020A8030020B0030020B003002081
:101F2400B8030020B8030020C0030020C003002031
:101F3400C8030020C8030020D0030020D0030020E1
:101F4400D8030020D8030020E0030020E003002091
:101F5400E8030020E8030020F0030020F003002041
:101F6400F8030020F80300200004002000040020EF
:101F7400080400200804002010040020100400209D
:101F8400180400201804002020040020200400204D
:101F940028040020280400203004002030040020FD
:101FA40038040020380400204004002040040020AD
:101FB400480400204804002050040020500400205D
:101FC400580400205804002060040020600400200D
:101FD40068040020680400207004002070040020BD
:101FE400780400207804002080040020800400206D
:101FF400880400208804002090040020900400201D
:102004009804002098040020A0040020A0040020CC
:10201400A8040020A8040020B0040020B00400207C
:10202400B8040020B8040020C0040020C00400202C
:10203400C8040020C8040020D0040020D0040020DC
:10204400D8040020D8040020E0040020E00400208C
:10205400E8040020E8040020F0040020F00400203C
:10206400F8040020F80400200005002000050020EA
:102074000805002008050020100500201005002098
:102084001805002018050020200500202005002048
:1020940028050020280500203005002030050020F8
:1020A40038050020380500204005002040050020A8
:1020B4004805002048050020500500205005002058
:0820C40058050020580500201A
:0400000508000201EC
:00000001FF
